{
  "_format": "hh-sol-artifact-1",
  "contractName": "BaseAccountFactory",
  "sourceName": "contracts/BaseAccountFactory.sol",
  "abi": [
    {
      "inputs": [
        {
          "internalType": "contract IEntryPoint",
          "name": "_entryPoint",
          "type": "address"
        }
      ],
      "stateMutability": "nonpayable",
      "type": "constructor"
    },
    {
      "anonymous": false,
      "inputs": [
        {
          "indexed": true,
          "internalType": "contract BaseAccount",
          "name": "baseAccountImpl",
          "type": "address"
        }
      ],
      "name": "BaseAccountCreated",
      "type": "event"
    },
    {
      "inputs": [],
      "name": "baseAccountImpl",
      "outputs": [
        {
          "internalType": "contract BaseAccount",
          "name": "",
          "type": "address"
        }
      ],
      "stateMutability": "view",
      "type": "function"
    },
    {
      "inputs": [
        {
          "internalType": "address",
          "name": "owner",
          "type": "address"
        },
        {
          "internalType": "uint256",
          "name": "salt",
          "type": "uint256"
        }
      ],
      "name": "createAccount",
      "outputs": [
        {
          "internalType": "contract BaseAccount",
          "name": "ret",
          "type": "address"
        }
      ],
      "stateMutability": "nonpayable",
      "type": "function"
    },
    {
      "inputs": [],
      "name": "entryPoint",
      "outputs": [
        {
          "internalType": "contract IEntryPoint",
          "name": "",
          "type": "address"
        }
      ],
      "stateMutability": "view",
      "type": "function"
    },
    {
      "inputs": [
        {
          "internalType": "address",
          "name": "owner",
          "type": "address"
        },
        {
          "internalType": "uint256",
          "name": "salt",
          "type": "uint256"
        }
      ],
      "name": "getAddress",
      "outputs": [
        {
          "internalType": "address",
          "name": "",
          "type": "address"
        }
      ],
      "stateMutability": "view",
      "type": "function"
    }
  ],
  "bytecode": "0x60c060405234801561001057600080fd5b50604051612cc6380380612cc683398101604081905261002f91610084565b6001600160a01b03811660a05260405161004890610077565b604051809103906000f080158015610064573d6000803e3d6000fd5b506001600160a01b0316608052506100b4565b61205980610c6d83390190565b60006020828403121561009657600080fd5b81516001600160a01b03811681146100ad57600080fd5b9392505050565b60805160a051610b7a6100f36000396000818160bf01528181610131015261025201526000818160560152818161010f01526102300152610b7a6000f3fe608060405234801561001057600080fd5b506004361061004c5760003560e01c8063407180df146100515780635fbfb9cf146100945780638cb84e18146100a7578063b0d691fe146100ba575b600080fd5b6100787f000000000000000000000000000000000000000000000000000000000000000081565b6040516001600160a01b03909116815260200160405180910390f35b6100786100a236600461033a565b6100e1565b6100786100b536600461033a565b610201565b6100787f000000000000000000000000000000000000000000000000000000000000000081565b6000806100ee8484610201565b90506001600160a01b0381163b8015610109575090506101fb565b8360001b7f0000000000000000000000000000000000000000000000000000000000000000867f0000000000000000000000000000000000000000000000000000000000000000604051602401610161929190610372565b60408051601f198184030181529181526020820180516001600160e01b031663485cc95560e01b179052516101959061032d565b6101a09291906103b0565b8190604051809103906000f59050801580156101c0573d6000803e3d6000fd5b506040519093506001600160a01b038416907f09b2851a29143054055e7be16f5ebceec3d080845da179f2eac8521731494fbc90600090a250505b92915050565b60006102f48260001b6040518060200161021a9061032d565b6020820181038252601f19601f820116604052507f0000000000000000000000000000000000000000000000000000000000000000867f0000000000000000000000000000000000000000000000000000000000000000604051602401610282929190610372565b60408051601f19818403018152918152602080830180516001600160e01b031663485cc95560e01b17905290516102bb939291016103b0565b60408051601f19818403018152908290526102d992916020016103f2565b604051602081830303815290604052805190602001206102fb565b9392505050565b60006102f48383306000604051836040820152846020820152828152600b8101905060ff815360559020949350505050565b6107238061042283390190565b6000806040838503121561034d57600080fd5b82356001600160a01b038116811461036457600080fd5b946020939093013593505050565b6001600160a01b0392831681529116602082015260400190565b60005b838110156103a757818101518382015260200161038f565b50506000910152565b60018060a01b038316815260406020820152600082518060408401526103dd81606085016020870161038c565b601f01601f1916919091016060019392505050565b6000835161040481846020880161038c565b83519083019061041881836020880161038c565b0194935050505056fe608060405260405161072338038061072383398101604081905261002291610317565b61002e82826000610035565b5050610434565b61003e8361006b565b60008251118061004b5750805b156100665761006483836100ab60201b6100291760201c565b505b505050565b610074816100d7565b6040516001600160a01b038216907fbc7cd75a20ee27fd9adebab32041f755214dbc6bffa90cc0225b39da2e5c2d3b90600090a250565b60606100d083836040518060600160405280602781526020016106fc602791396101a9565b9392505050565b6100ea8161022260201b6100551760201c565b6101515760405162461bcd60e51b815260206004820152602d60248201527f455243313936373a206e657720696d706c656d656e746174696f6e206973206e60448201526c1bdd08184818dbdb9d1c9858dd609a1b60648201526084015b60405180910390fd5b806101887f360894a13ba1a3210667c828492db98dca3e2076cc3735a920a3ca505d382bbc60001b61023160201b6100641760201c565b80546001600160a01b0319166001600160a01b039290921691909117905550565b6060600080856001600160a01b0316856040516101c691906103e5565b600060405180830381855af49150503d8060008114610201576040519150601f19603f3d011682016040523d82523d6000602084013e610206565b606091505b50909250905061021886838387610234565b9695505050505050565b6001600160a01b03163b151590565b90565b606083156102a157825160000361029a5761024e85610222565b61029a5760405162461bcd60e51b815260206004820152601d60248201527f416464726573733a2063616c6c20746f206e6f6e2d636f6e74726163740000006044820152606401610148565b50816102ab565b6102ab83836102b3565b949350505050565b8151156102c35781518083602001fd5b8060405162461bcd60e51b81526004016101489190610401565b634e487b7160e01b600052604160045260246000fd5b60005b8381101561030e5781810151838201526020016102f6565b50506000910152565b6000806040838503121561032a57600080fd5b82516001600160a01b038116811461034157600080fd5b60208401519092506001600160401b038082111561035e57600080fd5b818501915085601f83011261037257600080fd5b815181811115610384576103846102dd565b604051601f8201601f19908116603f011681019083821181831017156103ac576103ac6102dd565b816040528281528860208487010111156103c557600080fd5b6103d68360208301602088016102f3565b80955050505050509250929050565b600082516103f78184602087016102f3565b9190910192915050565b60208152600082518060208401526104208160408501602087016102f3565b601f01601f19169190910160400192915050565b6102b9806104436000396000f3fe60806040523661001357610011610017565b005b6100115b610027610022610067565b61009f565b565b606061004e838360405180606001604052806027815260200161025d602791396100c3565b9392505050565b6001600160a01b03163b151590565b90565b600061009a7f360894a13ba1a3210667c828492db98dca3e2076cc3735a920a3ca505d382bbc546001600160a01b031690565b905090565b3660008037600080366000845af43d6000803e8080156100be573d6000f35b3d6000fd5b6060600080856001600160a01b0316856040516100e0919061020d565b600060405180830381855af49150503d806000811461011b576040519150601f19603f3d011682016040523d82523d6000602084013e610120565b606091505b50915091506101318683838761013b565b9695505050505050565b606083156101ad5782516000036101a65761015585610055565b6101a65760405162461bcd60e51b815260206004820152601d60248201527f416464726573733a2063616c6c20746f206e6f6e2d636f6e747261637400000060448201526064015b60405180910390fd5b50816101b7565b6101b783836101bf565b949350505050565b8151156101cf5781518083602001fd5b8060405162461bcd60e51b815260040161019d9190610229565b60005b838110156102045781810151838201526020016101ec565b50506000910152565b6000825161021f8184602087016101e9565b9190910192915050565b60208152600082518060208401526102488160408501602087016101e9565b601f01601f1916919091016040019291505056fe416464726573733a206c6f772d6c6576656c2064656c65676174652063616c6c206661696c6564a2646970667358221220455614408b4e7b065ef3ebac6054abfbbb6331436d1315e5023fcb219a5252d364736f6c63430008120033416464726573733a206c6f772d6c6576656c2064656c65676174652063616c6c206661696c6564a2646970667358221220e9d76787cb190a2d99c38f1101bc0297fa10288c2f642ac2c77102e83521a09a64736f6c6343000812003360a06040523060805234801561001457600080fd5b5061001d610022565b6100e2565b600054610100900460ff161561008e5760405162461bcd60e51b815260206004820152602760248201527f496e697469616c697a61626c653a20636f6e747261637420697320696e697469604482015266616c697a696e6760c81b606482015260840160405180910390fd5b60005460ff90811610156100e0576000805460ff191660ff9081179091556040519081527f7f26b83ff96e1f2b6a682f133852f6798a09c465da95921460cefb38474024989060200160405180910390a15b565b608051611f40610119600039600081816105af015281816105ef0152818161094c0152818161098c0152610a080152611f406000f3fe6080604052600436106101135760003560e01c806223de291461011f57806301ffc9a714610146578063150b7a021461017b5780631626ba7e146101c057806318dfb3c7146101e057806321e69b25146102005780633644e515146102205780633659cfe6146102435780633a871cdd14610263578063405ca39f14610283578063485cc955146102a35780634a58db19146102c35780634d44560d146102cb5780634f1ef286146102eb57806352d1902d146102fe5780635e0b7a15146103135780638da5cb5b14610333578063b0d691fe14610366578063b61d27f61461037b578063bc197c811461039b578063c399ec88146103ca578063d087d288146103df578063f23a6e61146103f457600080fd5b3661011a57005b600080fd5b34801561012b57600080fd5b5061014461013a3660046116ea565b5050505050505050565b005b34801561015257600080fd5b5061016661016136600461179a565b610421565b60405190151581526020015b60405180910390f35b34801561018757600080fd5b506101a76101963660046117c4565b630a85bd0160e11b95945050505050565b6040516001600160e01b03199091168152602001610172565b3480156101cc57600080fd5b506101a76101db3660046118d8565b610473565b3480156101ec57600080fd5b506101446101fb366004611962565b610486565b34801561020c57600080fd5b5061014461021b3660046119cd565b610564565b34801561022c57600080fd5b50610235610596565b604051908152602001610172565b34801561024f57600080fd5b5061014461025e3660046119cd565b6105a5565b34801561026f57600080fd5b5061023561027e3660046119ea565b61066d565b34801561028f57600080fd5b5061014461029e366004611a3d565b61068c565b3480156102af57600080fd5b506101446102be366004611ad6565b61074d565b610144610869565b3480156102d757600080fd5b506101446102e6366004611b0f565b6108ca565b6101446102f9366004611b3b565b610942565b34801561030a57600080fd5b506102356109fb565b34801561031f57600080fd5b506101a761032e3660046118d8565b610aa9565b34801561033f57600080fd5b50600054610359906201000090046001600160a01b031681565b6040516101729190611b74565b34801561037257600080fd5b50610359610b3b565b34801561038757600080fd5b50610144610396366004611b88565b610b4a565b3480156103a757600080fd5b506101a76103b6366004611bd7565b63bc197c8160e01b98975050505050505050565b3480156103d657600080fd5b50610235610b99565b3480156103eb57600080fd5b50610235610c0f565b34801561040057600080fd5b506101a761040f366004611c74565b63f23a6e6160e01b9695505050505050565b60006001600160e01b03198216630a85bd0160e11b148061045257506001600160e01b03198216630271189760e51b145b8061046d57506001600160e01b031982166301ffc9a760e01b145b92915050565b600061047f8383610aa9565b9392505050565b61048e610c4e565b8281146104b65760405162461bcd60e51b81526004016104ad90611cdd565b60405180910390fd5b60005b8381101561055d5761054b8585838181106104d6576104d6611d0a565b90506020020160208101906104eb91906119cd565b60008585858181106104ff576104ff611d0a565b90506020028101906105119190611d20565b8080601f016020809104026020016040519081016040528093929190818152602001838380828437600092019190915250610cd392505050565b8061055581611d66565b9150506104b9565b5050505050565b61056c610d43565b610574610c4e565b600180546001600160a01b0319166001600160a01b0392909216919091179055565b60006105a0610d9a565b905090565b6001600160a01b037f00000000000000000000000000000000000000000000000000000000000000001630036105ed5760405162461bcd60e51b81526004016104ad90611d8d565b7f00000000000000000000000000000000000000000000000000000000000000006001600160a01b031661061f610dc0565b6001600160a01b0316146106455760405162461bcd60e51b81526004016104ad90611dc7565b61064e81610ddc565b6040805160008082526020820190925261066a91839190610de4565b50565b6000610677610f4f565b6106818484610fb6565b905061047f82611041565b610694610c4e565b8481146106b35760405162461bcd60e51b81526004016104ad90611cdd565b8281146106d25760405162461bcd60e51b81526004016104ad90611cdd565b60005b85811015610744576107328787838181106106f2576106f2611d0a565b905060200201602081019061070791906119cd565b86868481811061071957610719611d0a565b905060200201358585858181106104ff576104ff611d0a565b8061073c81611d66565b9150506106d5565b50505050505050565b600054610100900460ff161580801561076d5750600054600160ff909116105b8061078e575061077c3061108e565b15801561078e575060005460ff166001145b6107f15760405162461bcd60e51b815260206004820152602e60248201527f496e697469616c697a61626c653a20636f6e747261637420697320616c72656160448201526d191e481a5b9a5d1a585b1a5e995960921b60648201526084016104ad565b6000805460ff191660011790558015610814576000805461ff0019166101001790555b61081e838361109d565b8015610864576000805461ff0019169055604051600181527f7f26b83ff96e1f2b6a682f133852f6798a09c465da95921460cefb38474024989060200160405180910390a15b505050565b610871610b3b565b6001600160a01b031663b760faf934306040518363ffffffff1660e01b815260040161089d9190611b74565b6000604051808303818588803b1580156108b657600080fd5b505af115801561055d573d6000803e3d6000fd5b6108d2610d43565b6108da610b3b565b60405163040b850f60e31b81526001600160a01b03848116600483015260248201849052919091169063205c287890604401600060405180830381600087803b15801561092657600080fd5b505af115801561093a573d6000803e3d6000fd5b505050505050565b6001600160a01b037f000000000000000000000000000000000000000000000000000000000000000016300361098a5760405162461bcd60e51b81526004016104ad90611d8d565b7f00000000000000000000000000000000000000000000000000000000000000006001600160a01b03166109bc610dc0565b6001600160a01b0316146109e25760405162461bcd60e51b81526004016104ad90611dc7565b6109eb82610ddc565b6109f782826001610de4565b5050565b6000306001600160a01b037f00000000000000000000000000000000000000000000000000000000000000001614610a965760405162461bcd60e51b815260206004820152603860248201527f555550535570677261646561626c653a206d757374206e6f742062652063616c6044820152771b1959081d1a1c9bdd59da0819195b1959d85d1958d85b1b60421b60648201526084016104ad565b50600080516020611ec483398151915290565b600080610ab4610d9a565b610abc610c0f565b6040805160208101939093528201526060810185905260800160408051601f19818403018152919052805160208201209091506000610afa82611139565b9050610b06818661118c565b6000546201000090046001600160a01b03908116911614610b28576000610b31565b630b135d3f60e11b5b9695505050505050565b6001546001600160a01b031690565b610b52610c4e565b610b93848484848080601f016020809104026020016040519081016040528093929190818152602001838380828437600092019190915250610cd392505050565b50505050565b6000610ba3610b3b565b6001600160a01b03166370a08231306040518263ffffffff1660e01b8152600401610bce9190611b74565b602060405180830381865afa158015610beb573d6000803e3d6000fd5b505050506040513d601f19601f820116820180604052508101906105a09190611e01565b6000610c19610b3b565b604051631aab3f0d60e11b8152306004820152600060248201526001600160a01b0391909116906335567e1a90604401610bce565b610c56610b3b565b6001600160a01b0316336001600160a01b03161480610c8557506000546201000090046001600160a01b031633145b610cd15760405162461bcd60e51b815260206004820181905260248201527f6163636f756e743a206e6f74204f776e6572206f7220456e747279506f696e7460448201526064016104ad565b565b600080846001600160a01b03168484604051610cef9190611e3e565b60006040518083038185875af1925050503d8060008114610d2c576040519150601f19603f3d011682016040523d82523d6000602084013e610d31565b606091505b50915091508161055d57805160208201fd5b6000546201000090046001600160a01b0316331480610d6157503330145b610cd15760405162461bcd60e51b815260206004820152600a60248201526937b7363c9037bbb732b960b11b60448201526064016104ad565b60035460009046908114610db657610db1816111b0565b610dba565b6002545b91505090565b600080516020611ec4833981519152546001600160a01b031690565b61066a610d43565b7f4910fdfa16fed3260ed0e7147f7cc6da11a60208b5b9406d12a635614ffd91435460ff1615610e17576108648361121a565b826001600160a01b03166352d1902d6040518163ffffffff1660e01b8152600401602060405180830381865afa925050508015610e71575060408051601f3d908101601f19168201909252610e6e91810190611e01565b60015b610ed45760405162461bcd60e51b815260206004820152602e60248201527f45524331393637557067726164653a206e657720696d706c656d656e7461746960448201526d6f6e206973206e6f74205555505360901b60648201526084016104ad565b600080516020611ec48339815191528114610f435760405162461bcd60e51b815260206004820152602960248201527f45524331393637557067726164653a20756e737570706f727465642070726f786044820152681a58589b195555525160ba1b60648201526084016104ad565b506108648383836112b4565b610f57610b3b565b6001600160a01b0316336001600160a01b031614610cd15760405162461bcd60e51b815260206004820152601c60248201527b1858d8dbdd5b9d0e881b9bdd08199c9bdb48115b9d1c9e541bda5b9d60221b60448201526064016104ad565b600080610fc283611139565b9050611012610fd5610140860186611d20565b8080601f016020809104026020016040519081016040528093929190818152602001838380828437600092019190915250859392505061118c9050565b6000546201000090046001600160a01b0390811691161461103757600191505061046d565b5060009392505050565b801561066a57604051600090339060001990849084818181858888f193505050503d806000811461055d576040519150601f19603f3d011682016040523d82523d6000602084013e61055d565b6001600160a01b03163b151590565b6000805462010000600160b01b031916620100006001600160a01b038581169190910291909117909155600180546001600160a01b0319169183169190911790554660038190556110ed816111b0565b60025560008054600154604051620100009092046001600160a01b03908116939116917f47e55c76e7a6f1fd8996a1da8008c1ea29699cca35e7bcd057f2dec313b6e5de9190a3505050565b6040517b0ca2ba3432b932bab69029b4b3b732b21026b2b9b9b0b3b29d05199960211b6020820152603c8101829052600090605c015b604051602081830303815290604052805190602001209050919050565b600080600061119b85856112d9565b915091506111a88161131e565b509392505050565b604080517f22a1f56d1ac67e191d5f9ebee76ac2c509c58fe9a1bbf65f3cc0bb94d559ebb860208201527f8cad95687ba82c2ce50e74f7b754645e5117c3a5bec8151c0726d5857980a866918101919091526060810182905230608082015260009060a00161116f565b6112238161108e565b6112855760405162461bcd60e51b815260206004820152602d60248201527f455243313936373a206e657720696d706c656d656e746174696f6e206973206e60448201526c1bdd08184818dbdb9d1c9858dd609a1b60648201526084016104ad565b600080516020611ec483398151915280546001600160a01b0319166001600160a01b0392909216919091179055565b6112bd83611463565b6000825111806112ca5750805b1561086457610b9383836114a3565b600080825160410361130f5760208301516040840151606085015160001a611303878285856114c8565b94509450505050611317565b506000905060025b9250929050565b600081600481111561133257611332611e5a565b0361133a5750565b600181600481111561134e5761134e611e5a565b036113965760405162461bcd60e51b815260206004820152601860248201527745434453413a20696e76616c6964207369676e617475726560401b60448201526064016104ad565b60028160048111156113aa576113aa611e5a565b036113f75760405162461bcd60e51b815260206004820152601f60248201527f45434453413a20696e76616c6964207369676e6174757265206c656e6774680060448201526064016104ad565b600381600481111561140b5761140b611e5a565b0361066a5760405162461bcd60e51b815260206004820152602260248201527f45434453413a20696e76616c6964207369676e6174757265202773272076616c604482015261756560f01b60648201526084016104ad565b61146c8161121a565b6040516001600160a01b038216907fbc7cd75a20ee27fd9adebab32041f755214dbc6bffa90cc0225b39da2e5c2d3b90600090a250565b606061047f8383604051806060016040528060278152602001611ee460279139611582565b6000806fa2a8918ca85bafe22016d0b997e4df60600160ff1b038311156114f55750600090506003611579565b6040805160008082526020820180845289905260ff881692820192909252606081018690526080810185905260019060a0016020604051602081039080840390855afa158015611549573d6000803e3d6000fd5b5050604051601f1901519150506001600160a01b03811661157257600060019250925050611579565b9150600090505b94509492505050565b6060600080856001600160a01b03168560405161159f9190611e3e565b600060405180830381855af49150503d80600081146115da576040519150601f19603f3d011682016040523d82523d6000602084013e6115df565b606091505b5091509150610b318683838760608315611658578251600003611651576116058561108e565b6116515760405162461bcd60e51b815260206004820152601d60248201527f416464726573733a2063616c6c20746f206e6f6e2d636f6e747261637400000060448201526064016104ad565b5081611662565b611662838361166a565b949350505050565b81511561167a5781518083602001fd5b8060405162461bcd60e51b81526004016104ad9190611e70565b6001600160a01b038116811461066a57600080fd5b60008083601f8401126116bb57600080fd5b5081356001600160401b038111156116d257600080fd5b60208301915083602082850101111561131757600080fd5b60008060008060008060008060c0898b03121561170657600080fd5b883561171181611694565b9750602089013561172181611694565b9650604089013561173181611694565b95506060890135945060808901356001600160401b038082111561175457600080fd5b6117608c838d016116a9565b909650945060a08b013591508082111561177957600080fd5b506117868b828c016116a9565b999c989b5096995094979396929594505050565b6000602082840312156117ac57600080fd5b81356001600160e01b03198116811461047f57600080fd5b6000806000806000608086880312156117dc57600080fd5b85356117e781611694565b945060208601356117f781611694565b93506040860135925060608601356001600160401b0381111561181957600080fd5b611825888289016116a9565b969995985093965092949392505050565b634e487b7160e01b600052604160045260246000fd5b600082601f83011261185d57600080fd5b81356001600160401b038082111561187757611877611836565b604051601f8301601f19908116603f0116810190828211818310171561189f5761189f611836565b816040528381528660208588010111156118b857600080fd5b836020870160208301376000602085830101528094505050505092915050565b600080604083850312156118eb57600080fd5b8235915060208301356001600160401b0381111561190857600080fd5b6119148582860161184c565b9150509250929050565b60008083601f84011261193057600080fd5b5081356001600160401b0381111561194757600080fd5b6020830191508360208260051b850101111561131757600080fd5b6000806000806040858703121561197857600080fd5b84356001600160401b038082111561198f57600080fd5b61199b8883890161191e565b909650945060208701359150808211156119b457600080fd5b506119c18782880161191e565b95989497509550505050565b6000602082840312156119df57600080fd5b813561047f81611694565b6000806000606084860312156119ff57600080fd5b83356001600160401b03811115611a1557600080fd5b84016101608187031215611a2857600080fd5b95602085013595506040909401359392505050565b60008060008060008060608789031215611a5657600080fd5b86356001600160401b0380821115611a6d57600080fd5b611a798a838b0161191e565b90985096506020890135915080821115611a9257600080fd5b611a9e8a838b0161191e565b90965094506040890135915080821115611ab757600080fd5b50611ac489828a0161191e565b979a9699509497509295939492505050565b60008060408385031215611ae957600080fd5b8235611af481611694565b91506020830135611b0481611694565b809150509250929050565b60008060408385031215611b2257600080fd5b8235611b2d81611694565b946020939093013593505050565b60008060408385031215611b4e57600080fd5b8235611b5981611694565b915060208301356001600160401b0381111561190857600080fd5b6001600160a01b0391909116815260200190565b60008060008060608587031215611b9e57600080fd5b8435611ba981611694565b93506020850135925060408501356001600160401b03811115611bcb57600080fd5b6119c1878288016116a9565b60008060008060008060008060a0898b031215611bf357600080fd5b8835611bfe81611694565b97506020890135611c0e81611694565b965060408901356001600160401b0380821115611c2a57600080fd5b611c368c838d0161191e565b909850965060608b0135915080821115611c4f57600080fd5b611c5b8c838d0161191e565b909650945060808b013591508082111561177957600080fd5b60008060008060008060a08789031215611c8d57600080fd5b8635611c9881611694565b95506020870135611ca881611694565b9450604087013593506060870135925060808701356001600160401b03811115611cd157600080fd5b611ac489828a016116a9565b60208082526013908201527277726f6e67206172726179206c656e6774687360681b604082015260600190565b634e487b7160e01b600052603260045260246000fd5b6000808335601e19843603018112611d3757600080fd5b8301803591506001600160401b03821115611d5157600080fd5b60200191503681900382131561131757600080fd5b600060018201611d8657634e487b7160e01b600052601160045260246000fd5b5060010190565b6020808252602c90820152600080516020611ea483398151915260408201526b19195b1959d85d1958d85b1b60a21b606082015260800190565b6020808252602c90820152600080516020611ea483398151915260408201526b6163746976652070726f787960a01b606082015260800190565b600060208284031215611e1357600080fd5b5051919050565b60005b83811015611e35578181015183820152602001611e1d565b50506000910152565b60008251611e50818460208701611e1a565b9190910192915050565b634e487b7160e01b600052602160045260246000fd5b6020815260008251806020840152611e8f816040850160208701611e1a565b601f01601f1916919091016040019291505056fe46756e6374696f6e206d7573742062652063616c6c6564207468726f75676820360894a13ba1a3210667c828492db98dca3e2076cc3735a920a3ca505d382bbc416464726573733a206c6f772d6c6576656c2064656c65676174652063616c6c206661696c6564a2646970667358221220e57fa43286bd3c9d95d4036f5d1e5c88f8970a2f321e56835e889ec4dfba127564736f6c63430008120033",
  "linkReferences": {},
  "deployedLinkReferences": {}
}