{
  "_format": "hh-sol-artifact-1",
  "contractName": "EntryPoint",
  "sourceName": "contracts/core/EntryPoint.sol",
  "abi": [
    {
      "inputs": [
        {
          "internalType": "uint256",
          "name": "preOpGas",
          "type": "uint256"
        },
        {
          "internalType": "uint256",
          "name": "paid",
          "type": "uint256"
        },
        {
          "internalType": "uint48",
          "name": "validAfter",
          "type": "uint48"
        },
        {
          "internalType": "uint48",
          "name": "validUntil",
          "type": "uint48"
        },
        {
          "internalType": "bool",
          "name": "targetSuccess",
          "type": "bool"
        },
        {
          "internalType": "bytes",
          "name": "targetResult",
          "type": "bytes"
        }
      ],
      "name": "ExecutionResult",
      "type": "error"
    },
    {
      "inputs": [
        {
          "internalType": "uint256",
          "name": "opIndex",
          "type": "uint256"
        },
        {
          "internalType": "string",
          "name": "reason",
          "type": "string"
        }
      ],
      "name": "FailedOp",
      "type": "error"
    },
    {
      "inputs": [
        {
          "internalType": "address",
          "name": "sender",
          "type": "address"
        }
      ],
      "name": "SenderAddressResult",
      "type": "error"
    },
    {
      "inputs": [
        {
          "internalType": "address",
          "name": "aggregator",
          "type": "address"
        }
      ],
      "name": "SignatureValidationFailed",
      "type": "error"
    },
    {
      "inputs": [
        {
          "components": [
            {
              "internalType": "uint256",
              "name": "preOpGas",
              "type": "uint256"
            },
            {
              "internalType": "uint256",
              "name": "prefund",
              "type": "uint256"
            },
            {
              "internalType": "bool",
              "name": "sigFailed",
              "type": "bool"
            },
            {
              "internalType": "uint48",
              "name": "validAfter",
              "type": "uint48"
            },
            {
              "internalType": "uint48",
              "name": "validUntil",
              "type": "uint48"
            },
            {
              "internalType": "bytes",
              "name": "paymasterContext",
              "type": "bytes"
            }
          ],
          "internalType": "struct IEntryPoint.ReturnInfo",
          "name": "returnInfo",
          "type": "tuple"
        },
        {
          "components": [
            {
              "internalType": "uint256",
              "name": "stake",
              "type": "uint256"
            },
            {
              "internalType": "uint256",
              "name": "unstakeDelaySec",
              "type": "uint256"
            }
          ],
          "internalType": "struct IStakeManager.StakeInfo",
          "name": "senderInfo",
          "type": "tuple"
        },
        {
          "components": [
            {
              "internalType": "uint256",
              "name": "stake",
              "type": "uint256"
            },
            {
              "internalType": "uint256",
              "name": "unstakeDelaySec",
              "type": "uint256"
            }
          ],
          "internalType": "struct IStakeManager.StakeInfo",
          "name": "factoryInfo",
          "type": "tuple"
        },
        {
          "components": [
            {
              "internalType": "uint256",
              "name": "stake",
              "type": "uint256"
            },
            {
              "internalType": "uint256",
              "name": "unstakeDelaySec",
              "type": "uint256"
            }
          ],
          "internalType": "struct IStakeManager.StakeInfo",
          "name": "paymasterInfo",
          "type": "tuple"
        }
      ],
      "name": "ValidationResult",
      "type": "error"
    },
    {
      "inputs": [
        {
          "components": [
            {
              "internalType": "uint256",
              "name": "preOpGas",
              "type": "uint256"
            },
            {
              "internalType": "uint256",
              "name": "prefund",
              "type": "uint256"
            },
            {
              "internalType": "bool",
              "name": "sigFailed",
              "type": "bool"
            },
            {
              "internalType": "uint48",
              "name": "validAfter",
              "type": "uint48"
            },
            {
              "internalType": "uint48",
              "name": "validUntil",
              "type": "uint48"
            },
            {
              "internalType": "bytes",
              "name": "paymasterContext",
              "type": "bytes"
            }
          ],
          "internalType": "struct IEntryPoint.ReturnInfo",
          "name": "returnInfo",
          "type": "tuple"
        },
        {
          "components": [
            {
              "internalType": "uint256",
              "name": "stake",
              "type": "uint256"
            },
            {
              "internalType": "uint256",
              "name": "unstakeDelaySec",
              "type": "uint256"
            }
          ],
          "internalType": "struct IStakeManager.StakeInfo",
          "name": "senderInfo",
          "type": "tuple"
        },
        {
          "components": [
            {
              "internalType": "uint256",
              "name": "stake",
              "type": "uint256"
            },
            {
              "internalType": "uint256",
              "name": "unstakeDelaySec",
              "type": "uint256"
            }
          ],
          "internalType": "struct IStakeManager.StakeInfo",
          "name": "factoryInfo",
          "type": "tuple"
        },
        {
          "components": [
            {
              "internalType": "uint256",
              "name": "stake",
              "type": "uint256"
            },
            {
              "internalType": "uint256",
              "name": "unstakeDelaySec",
              "type": "uint256"
            }
          ],
          "internalType": "struct IStakeManager.StakeInfo",
          "name": "paymasterInfo",
          "type": "tuple"
        },
        {
          "components": [
            {
              "internalType": "address",
              "name": "aggregator",
              "type": "address"
            },
            {
              "components": [
                {
                  "internalType": "uint256",
                  "name": "stake",
                  "type": "uint256"
                },
                {
                  "internalType": "uint256",
                  "name": "unstakeDelaySec",
                  "type": "uint256"
                }
              ],
              "internalType": "struct IStakeManager.StakeInfo",
              "name": "stakeInfo",
              "type": "tuple"
            }
          ],
          "internalType": "struct IEntryPoint.AggregatorStakeInfo",
          "name": "aggregatorInfo",
          "type": "tuple"
        }
      ],
      "name": "ValidationResultWithAggregation",
      "type": "error"
    },
    {
      "anonymous": false,
      "inputs": [
        {
          "indexed": true,
          "internalType": "bytes32",
          "name": "userOpHash",
          "type": "bytes32"
        },
        {
          "indexed": true,
          "internalType": "address",
          "name": "sender",
          "type": "address"
        },
        {
          "indexed": false,
          "internalType": "address",
          "name": "factory",
          "type": "address"
        },
        {
          "indexed": false,
          "internalType": "address",
          "name": "paymaster",
          "type": "address"
        }
      ],
      "name": "AccountDeployed",
      "type": "event"
    },
    {
      "anonymous": false,
      "inputs": [],
      "name": "BeforeExecution",
      "type": "event"
    },
    {
      "anonymous": false,
      "inputs": [
        {
          "indexed": true,
          "internalType": "address",
          "name": "account",
          "type": "address"
        },
        {
          "indexed": false,
          "internalType": "uint256",
          "name": "totalDeposit",
          "type": "uint256"
        }
      ],
      "name": "Deposited",
      "type": "event"
    },
    {
      "anonymous": false,
      "inputs": [
        {
          "indexed": true,
          "internalType": "address",
          "name": "aggregator",
          "type": "address"
        }
      ],
      "name": "SignatureAggregatorChanged",
      "type": "event"
    },
    {
      "anonymous": false,
      "inputs": [
        {
          "indexed": true,
          "internalType": "address",
          "name": "account",
          "type": "address"
        },
        {
          "indexed": false,
          "internalType": "uint256",
          "name": "totalStaked",
          "type": "uint256"
        },
        {
          "indexed": false,
          "internalType": "uint256",
          "name": "unstakeDelaySec",
          "type": "uint256"
        }
      ],
      "name": "StakeLocked",
      "type": "event"
    },
    {
      "anonymous": false,
      "inputs": [
        {
          "indexed": true,
          "internalType": "address",
          "name": "account",
          "type": "address"
        },
        {
          "indexed": false,
          "internalType": "uint256",
          "name": "withdrawTime",
          "type": "uint256"
        }
      ],
      "name": "StakeUnlocked",
      "type": "event"
    },
    {
      "anonymous": false,
      "inputs": [
        {
          "indexed": true,
          "internalType": "address",
          "name": "account",
          "type": "address"
        },
        {
          "indexed": false,
          "internalType": "address",
          "name": "withdrawAddress",
          "type": "address"
        },
        {
          "indexed": false,
          "internalType": "uint256",
          "name": "amount",
          "type": "uint256"
        }
      ],
      "name": "StakeWithdrawn",
      "type": "event"
    },
    {
      "anonymous": false,
      "inputs": [
        {
          "indexed": true,
          "internalType": "bytes32",
          "name": "userOpHash",
          "type": "bytes32"
        },
        {
          "indexed": true,
          "internalType": "address",
          "name": "sender",
          "type": "address"
        },
        {
          "indexed": true,
          "internalType": "address",
          "name": "paymaster",
          "type": "address"
        },
        {
          "indexed": false,
          "internalType": "uint256",
          "name": "nonce",
          "type": "uint256"
        },
        {
          "indexed": false,
          "internalType": "bool",
          "name": "success",
          "type": "bool"
        },
        {
          "indexed": false,
          "internalType": "uint256",
          "name": "actualGasCost",
          "type": "uint256"
        },
        {
          "indexed": false,
          "internalType": "uint256",
          "name": "actualGasUsed",
          "type": "uint256"
        }
      ],
      "name": "UserOperationEvent",
      "type": "event"
    },
    {
      "anonymous": false,
      "inputs": [
        {
          "indexed": true,
          "internalType": "bytes32",
          "name": "userOpHash",
          "type": "bytes32"
        },
        {
          "indexed": true,
          "internalType": "address",
          "name": "sender",
          "type": "address"
        },
        {
          "indexed": false,
          "internalType": "uint256",
          "name": "nonce",
          "type": "uint256"
        },
        {
          "indexed": false,
          "internalType": "bytes",
          "name": "revertReason",
          "type": "bytes"
        }
      ],
      "name": "UserOperationRevertReason",
      "type": "event"
    },
    {
      "anonymous": false,
      "inputs": [
        {
          "indexed": true,
          "internalType": "address",
          "name": "account",
          "type": "address"
        },
        {
          "indexed": false,
          "internalType": "address",
          "name": "withdrawAddress",
          "type": "address"
        },
        {
          "indexed": false,
          "internalType": "uint256",
          "name": "amount",
          "type": "uint256"
        }
      ],
      "name": "Withdrawn",
      "type": "event"
    },
    {
      "inputs": [],
      "name": "SIG_VALIDATION_FAILED",
      "outputs": [
        {
          "internalType": "uint256",
          "name": "",
          "type": "uint256"
        }
      ],
      "stateMutability": "view",
      "type": "function"
    },
    {
      "inputs": [
        {
          "internalType": "bytes",
          "name": "initCode",
          "type": "bytes"
        },
        {
          "internalType": "address",
          "name": "sender",
          "type": "address"
        },
        {
          "internalType": "bytes",
          "name": "paymasterAndData",
          "type": "bytes"
        }
      ],
      "name": "_validateSenderAndPaymaster",
      "outputs": [],
      "stateMutability": "view",
      "type": "function"
    },
    {
      "inputs": [
        {
          "internalType": "uint32",
          "name": "unstakeDelaySec",
          "type": "uint32"
        }
      ],
      "name": "addStake",
      "outputs": [],
      "stateMutability": "payable",
      "type": "function"
    },
    {
      "inputs": [
        {
          "internalType": "address",
          "name": "account",
          "type": "address"
        }
      ],
      "name": "balanceOf",
      "outputs": [
        {
          "internalType": "uint256",
          "name": "",
          "type": "uint256"
        }
      ],
      "stateMutability": "view",
      "type": "function"
    },
    {
      "inputs": [
        {
          "internalType": "address",
          "name": "account",
          "type": "address"
        }
      ],
      "name": "depositTo",
      "outputs": [],
      "stateMutability": "payable",
      "type": "function"
    },
    {
      "inputs": [
        {
          "internalType": "address",
          "name": "",
          "type": "address"
        }
      ],
      "name": "deposits",
      "outputs": [
        {
          "internalType": "uint112",
          "name": "deposit",
          "type": "uint112"
        },
        {
          "internalType": "bool",
          "name": "staked",
          "type": "bool"
        },
        {
          "internalType": "uint112",
          "name": "stake",
          "type": "uint112"
        },
        {
          "internalType": "uint32",
          "name": "unstakeDelaySec",
          "type": "uint32"
        },
        {
          "internalType": "uint48",
          "name": "withdrawTime",
          "type": "uint48"
        }
      ],
      "stateMutability": "view",
      "type": "function"
    },
    {
      "inputs": [
        {
          "internalType": "address",
          "name": "account",
          "type": "address"
        }
      ],
      "name": "getDepositInfo",
      "outputs": [
        {
          "components": [
            {
              "internalType": "uint112",
              "name": "deposit",
              "type": "uint112"
            },
            {
              "internalType": "bool",
              "name": "staked",
              "type": "bool"
            },
            {
              "internalType": "uint112",
              "name": "stake",
              "type": "uint112"
            },
            {
              "internalType": "uint32",
              "name": "unstakeDelaySec",
              "type": "uint32"
            },
            {
              "internalType": "uint48",
              "name": "withdrawTime",
              "type": "uint48"
            }
          ],
          "internalType": "struct IStakeManager.DepositInfo",
          "name": "info",
          "type": "tuple"
        }
      ],
      "stateMutability": "view",
      "type": "function"
    },
    {
      "inputs": [
        {
          "internalType": "address",
          "name": "sender",
          "type": "address"
        },
        {
          "internalType": "uint192",
          "name": "key",
          "type": "uint192"
        }
      ],
      "name": "getNonce",
      "outputs": [
        {
          "internalType": "uint256",
          "name": "nonce",
          "type": "uint256"
        }
      ],
      "stateMutability": "view",
      "type": "function"
    },
    {
      "inputs": [
        {
          "internalType": "bytes",
          "name": "initCode",
          "type": "bytes"
        }
      ],
      "name": "getSenderAddress",
      "outputs": [],
      "stateMutability": "nonpayable",
      "type": "function"
    },
    {
      "inputs": [
        {
          "components": [
            {
              "internalType": "address",
              "name": "sender",
              "type": "address"
            },
            {
              "internalType": "uint256",
              "name": "nonce",
              "type": "uint256"
            },
            {
              "internalType": "bytes",
              "name": "initCode",
              "type": "bytes"
            },
            {
              "internalType": "bytes",
              "name": "callData",
              "type": "bytes"
            },
            {
              "internalType": "uint256",
              "name": "callGasLimit",
              "type": "uint256"
            },
            {
              "internalType": "uint256",
              "name": "verificationGasLimit",
              "type": "uint256"
            },
            {
              "internalType": "uint256",
              "name": "preVerificationGas",
              "type": "uint256"
            },
            {
              "internalType": "uint256",
              "name": "maxFeePerGas",
              "type": "uint256"
            },
            {
              "internalType": "uint256",
              "name": "maxPriorityFeePerGas",
              "type": "uint256"
            },
            {
              "internalType": "bytes",
              "name": "paymasterAndData",
              "type": "bytes"
            },
            {
              "internalType": "bytes",
              "name": "signature",
              "type": "bytes"
            }
          ],
          "internalType": "struct UserOperation",
          "name": "userOp",
          "type": "tuple"
        }
      ],
      "name": "getUserOpHash",
      "outputs": [
        {
          "internalType": "bytes32",
          "name": "",
          "type": "bytes32"
        }
      ],
      "stateMutability": "view",
      "type": "function"
    },
    {
      "inputs": [
        {
          "components": [
            {
              "components": [
                {
                  "internalType": "address",
                  "name": "sender",
                  "type": "address"
                },
                {
                  "internalType": "uint256",
                  "name": "nonce",
                  "type": "uint256"
                },
                {
                  "internalType": "bytes",
                  "name": "initCode",
                  "type": "bytes"
                },
                {
                  "internalType": "bytes",
                  "name": "callData",
                  "type": "bytes"
                },
                {
                  "internalType": "uint256",
                  "name": "callGasLimit",
                  "type": "uint256"
                },
                {
                  "internalType": "uint256",
                  "name": "verificationGasLimit",
                  "type": "uint256"
                },
                {
                  "internalType": "uint256",
                  "name": "preVerificationGas",
                  "type": "uint256"
                },
                {
                  "internalType": "uint256",
                  "name": "maxFeePerGas",
                  "type": "uint256"
                },
                {
                  "internalType": "uint256",
                  "name": "maxPriorityFeePerGas",
                  "type": "uint256"
                },
                {
                  "internalType": "bytes",
                  "name": "paymasterAndData",
                  "type": "bytes"
                },
                {
                  "internalType": "bytes",
                  "name": "signature",
                  "type": "bytes"
                }
              ],
              "internalType": "struct UserOperation[]",
              "name": "userOps",
              "type": "tuple[]"
            },
            {
              "internalType": "contract IAggregator",
              "name": "aggregator",
              "type": "address"
            },
            {
              "internalType": "bytes",
              "name": "signature",
              "type": "bytes"
            }
          ],
          "internalType": "struct IEntryPoint.UserOpsPerAggregator[]",
          "name": "opsPerAggregator",
          "type": "tuple[]"
        },
        {
          "internalType": "address payable",
          "name": "beneficiary",
          "type": "address"
        }
      ],
      "name": "handleAggregatedOps",
      "outputs": [],
      "stateMutability": "nonpayable",
      "type": "function"
    },
    {
      "inputs": [
        {
          "components": [
            {
              "internalType": "address",
              "name": "sender",
              "type": "address"
            },
            {
              "internalType": "uint256",
              "name": "nonce",
              "type": "uint256"
            },
            {
              "internalType": "bytes",
              "name": "initCode",
              "type": "bytes"
            },
            {
              "internalType": "bytes",
              "name": "callData",
              "type": "bytes"
            },
            {
              "internalType": "uint256",
              "name": "callGasLimit",
              "type": "uint256"
            },
            {
              "internalType": "uint256",
              "name": "verificationGasLimit",
              "type": "uint256"
            },
            {
              "internalType": "uint256",
              "name": "preVerificationGas",
              "type": "uint256"
            },
            {
              "internalType": "uint256",
              "name": "maxFeePerGas",
              "type": "uint256"
            },
            {
              "internalType": "uint256",
              "name": "maxPriorityFeePerGas",
              "type": "uint256"
            },
            {
              "internalType": "bytes",
              "name": "paymasterAndData",
              "type": "bytes"
            },
            {
              "internalType": "bytes",
              "name": "signature",
              "type": "bytes"
            }
          ],
          "internalType": "struct UserOperation[]",
          "name": "ops",
          "type": "tuple[]"
        },
        {
          "internalType": "address payable",
          "name": "beneficiary",
          "type": "address"
        }
      ],
      "name": "handleOps",
      "outputs": [],
      "stateMutability": "nonpayable",
      "type": "function"
    },
    {
      "inputs": [
        {
          "internalType": "uint192",
          "name": "key",
          "type": "uint192"
        }
      ],
      "name": "incrementNonce",
      "outputs": [],
      "stateMutability": "nonpayable",
      "type": "function"
    },
    {
      "inputs": [
        {
          "internalType": "bytes",
          "name": "callData",
          "type": "bytes"
        },
        {
          "components": [
            {
              "components": [
                {
                  "internalType": "address",
                  "name": "sender",
                  "type": "address"
                },
                {
                  "internalType": "uint256",
                  "name": "nonce",
                  "type": "uint256"
                },
                {
                  "internalType": "uint256",
                  "name": "callGasLimit",
                  "type": "uint256"
                },
                {
                  "internalType": "uint256",
                  "name": "verificationGasLimit",
                  "type": "uint256"
                },
                {
                  "internalType": "uint256",
                  "name": "preVerificationGas",
                  "type": "uint256"
                },
                {
                  "internalType": "address",
                  "name": "paymaster",
                  "type": "address"
                },
                {
                  "internalType": "uint256",
                  "name": "maxFeePerGas",
                  "type": "uint256"
                },
                {
                  "internalType": "uint256",
                  "name": "maxPriorityFeePerGas",
                  "type": "uint256"
                }
              ],
              "internalType": "struct EntryPoint.MemoryUserOp",
              "name": "mUserOp",
              "type": "tuple"
            },
            {
              "internalType": "bytes32",
              "name": "userOpHash",
              "type": "bytes32"
            },
            {
              "internalType": "uint256",
              "name": "prefund",
              "type": "uint256"
            },
            {
              "internalType": "uint256",
              "name": "contextOffset",
              "type": "uint256"
            },
            {
              "internalType": "uint256",
              "name": "preOpGas",
              "type": "uint256"
            }
          ],
          "internalType": "struct EntryPoint.UserOpInfo",
          "name": "opInfo",
          "type": "tuple"
        },
        {
          "internalType": "bytes",
          "name": "context",
          "type": "bytes"
        }
      ],
      "name": "innerHandleOp",
      "outputs": [
        {
          "internalType": "uint256",
          "name": "actualGasCost",
          "type": "uint256"
        }
      ],
      "stateMutability": "nonpayable",
      "type": "function"
    },
    {
      "inputs": [
        {
          "internalType": "address",
          "name": "",
          "type": "address"
        },
        {
          "internalType": "uint192",
          "name": "",
          "type": "uint192"
        }
      ],
      "name": "nonceSequenceNumber",
      "outputs": [
        {
          "internalType": "uint256",
          "name": "",
          "type": "uint256"
        }
      ],
      "stateMutability": "view",
      "type": "function"
    },
    {
      "inputs": [
        {
          "components": [
            {
              "internalType": "address",
              "name": "sender",
              "type": "address"
            },
            {
              "internalType": "uint256",
              "name": "nonce",
              "type": "uint256"
            },
            {
              "internalType": "bytes",
              "name": "initCode",
              "type": "bytes"
            },
            {
              "internalType": "bytes",
              "name": "callData",
              "type": "bytes"
            },
            {
              "internalType": "uint256",
              "name": "callGasLimit",
              "type": "uint256"
            },
            {
              "internalType": "uint256",
              "name": "verificationGasLimit",
              "type": "uint256"
            },
            {
              "internalType": "uint256",
              "name": "preVerificationGas",
              "type": "uint256"
            },
            {
              "internalType": "uint256",
              "name": "maxFeePerGas",
              "type": "uint256"
            },
            {
              "internalType": "uint256",
              "name": "maxPriorityFeePerGas",
              "type": "uint256"
            },
            {
              "internalType": "bytes",
              "name": "paymasterAndData",
              "type": "bytes"
            },
            {
              "internalType": "bytes",
              "name": "signature",
              "type": "bytes"
            }
          ],
          "internalType": "struct UserOperation",
          "name": "op",
          "type": "tuple"
        },
        {
          "internalType": "address",
          "name": "target",
          "type": "address"
        },
        {
          "internalType": "bytes",
          "name": "targetCallData",
          "type": "bytes"
        }
      ],
      "name": "simulateHandleOp",
      "outputs": [],
      "stateMutability": "nonpayable",
      "type": "function"
    },
    {
      "inputs": [
        {
          "components": [
            {
              "internalType": "address",
              "name": "sender",
              "type": "address"
            },
            {
              "internalType": "uint256",
              "name": "nonce",
              "type": "uint256"
            },
            {
              "internalType": "bytes",
              "name": "initCode",
              "type": "bytes"
            },
            {
              "internalType": "bytes",
              "name": "callData",
              "type": "bytes"
            },
            {
              "internalType": "uint256",
              "name": "callGasLimit",
              "type": "uint256"
            },
            {
              "internalType": "uint256",
              "name": "verificationGasLimit",
              "type": "uint256"
            },
            {
              "internalType": "uint256",
              "name": "preVerificationGas",
              "type": "uint256"
            },
            {
              "internalType": "uint256",
              "name": "maxFeePerGas",
              "type": "uint256"
            },
            {
              "internalType": "uint256",
              "name": "maxPriorityFeePerGas",
              "type": "uint256"
            },
            {
              "internalType": "bytes",
              "name": "paymasterAndData",
              "type": "bytes"
            },
            {
              "internalType": "bytes",
              "name": "signature",
              "type": "bytes"
            }
          ],
          "internalType": "struct UserOperation",
          "name": "userOp",
          "type": "tuple"
        }
      ],
      "name": "simulateValidation",
      "outputs": [],
      "stateMutability": "nonpayable",
      "type": "function"
    },
    {
      "inputs": [],
      "name": "unlockStake",
      "outputs": [],
      "stateMutability": "nonpayable",
      "type": "function"
    },
    {
      "inputs": [
        {
          "internalType": "address payable",
          "name": "withdrawAddress",
          "type": "address"
        }
      ],
      "name": "withdrawStake",
      "outputs": [],
      "stateMutability": "nonpayable",
      "type": "function"
    },
    {
      "inputs": [
        {
          "internalType": "address payable",
          "name": "withdrawAddress",
          "type": "address"
        },
        {
          "internalType": "uint256",
          "name": "withdrawAmount",
          "type": "uint256"
        }
      ],
      "name": "withdrawTo",
      "outputs": [],
      "stateMutability": "nonpayable",
      "type": "function"
    },
    {
      "stateMutability": "payable",
      "type": "receive"
    }
  ],
  "bytecode": "0x60a0604052604051620000129062000055565b604051809103906000f0801580156200002f573d6000803e3d6000fd5b506001600160a01b03166080523480156200004957600080fd5b50600160025562000063565b61020d8062003f6383390190565b608051613edd62000086600039600081816111ef0152612cab0152613edd6000f3fe6080604052600436106100f35760003560e01c80630396cb60146101085780630bd28e3b1461011b5780631b2e01b81461013b5780631d732756146101865780631fad948c146101a6578063205c2878146101c657806335567e1a146101e65780634b1d7cf5146102065780635287ce121461022657806370a08231146103425780638f41ec5a14610362578063957122ab146103775780639b249f6914610397578063a6193531146103b7578063b760faf9146103d7578063bb9fe6bf146103ea578063c23a5cea146103ff578063d6383f941461041f578063ee2194231461043f578063fc7e286d1461045f57600080fd5b366101035761010133610513565b005b600080fd5b610101610116366004612fb6565b61057a565b34801561012757600080fd5b50610101610136366004612ff8565b6107f9565b34801561014757600080fd5b50610173610156366004613033565b600160209081526000928352604080842090915290825290205481565b6040519081526020015b60405180910390f35b34801561019257600080fd5b506101736101a136600461322d565b610830565b3480156101b257600080fd5b506101016101c1366004613336565b61099d565b3480156101d257600080fd5b506101016101e136600461338c565b610b07565b3480156101f257600080fd5b50610173610201366004613033565b610c77565b34801561021257600080fd5b50610101610221366004613336565b610cbc565b34801561023257600080fd5b506102ea6102413660046133b8565b6040805160a081018252600080825260208201819052918101829052606081018290526080810191909152506001600160a01b031660009081526020818152604091829020825160a08101845281546001600160701b038082168352600160701b820460ff16151594830194909452600160781b90049092169282019290925260019091015463ffffffff81166060830152600160201b900465ffffffffffff16608082015290565b6040805182516001600160701b03908116825260208085015115159083015283830151169181019190915260608083015163ffffffff169082015260809182015165ffffffffffff169181019190915260a00161017d565b34801561034e57600080fd5b5061017361035d3660046133b8565b6110ba565b34801561036e57600080fd5b50610173600181565b34801561038357600080fd5b506101016103923660046133d5565b6110de565b3480156103a357600080fd5b506101016103b2366004613459565b6111d5565b3480156103c357600080fd5b506101736103d23660046134b3565b611286565b6101016103e53660046133b8565b610513565b3480156103f657600080fd5b506101016112c8565b34801561040b57600080fd5b5061010161041a3660046133b8565b6113ef565b34801561042b57600080fd5b5061010161043a3660046134e7565b611613565b34801561044b57600080fd5b5061010161045a3660046134b3565b61170e565b34801561046b57600080fd5b506104cd61047a3660046133b8565b600060208190529081526040902080546001909101546001600160701b0380831692600160701b810460ff1692600160781b9091049091169063ffffffff811690600160201b900465ffffffffffff1685565b604080516001600160701b0396871681529415156020860152929094169183019190915263ffffffff16606082015265ffffffffffff909116608082015260a00161017d565b61051d81346118d5565b6001600160a01b03811660008181526020818152604091829020805492516001600160701b03909316835292917f2da466a7b24304f47e87fa2e1e5a81b9831ce54fec19055ce277ca2f39ba42c491015b60405180910390a25050565b33600090815260208190526040902063ffffffff82166105de5760405162461bcd60e51b815260206004820152601a6024820152796d757374207370656369667920756e7374616b652064656c617960301b60448201526064015b60405180910390fd5b600181015463ffffffff908116908316101561063b5760405162461bcd60e51b815260206004820152601c60248201527b63616e6e6f7420646563726561736520756e7374616b652074696d6560201b60448201526064016105d5565b805460009061065b903490600160781b90046001600160701b031661355e565b9050600081116106a25760405162461bcd60e51b81526020600482015260126024820152711b9bc81cdd185ad9481cdc1958da599a595960721b60448201526064016105d5565b6001600160701b038111156106ea5760405162461bcd60e51b815260206004820152600e60248201526d7374616b65206f766572666c6f7760901b60448201526064016105d5565b6040805160a08101825283546001600160701b0390811682526001602080840182815286841685870190815263ffffffff808b16606088019081526000608089018181523380835296829052908a902098518954955194518916600160781b02600160781b600160e81b0319951515600160701b026001600160781b03199097169190991617949094179290921695909517865551949092018054925165ffffffffffff16600160201b026001600160501b0319909316949093169390931717905590517fa5ae833d0bb1dcd632d98a8b70973e8516812898e19bf27b70071ebc8dc52c01906107ec908490879091825263ffffffff16602082015260400190565b60405180910390a2505050565b3360009081526001602090815260408083206001600160c01b0385168452909152812080549161082883613571565b919050555050565b6000805a905033301461087f5760405162461bcd60e51b81526020600482015260176024820152764141393220696e7465726e616c2063616c6c206f6e6c7960481b60448201526064016105d5565b8451604081015160608201518101611388015a10156108a95763deaddead60e01b60005260206000fd5b87516000901561093d5760006108c6846000015160008c86611971565b90508061093b5760006108da610800611989565b8051909150156109355784600001516001600160a01b03168a602001517f1c4fada7374c0a9ee8841fc38afe82932dc0f8e69012e927f061a8bae611a20187602001518460405161092c9291906135da565b60405180910390a35b60019250505b505b600088608001515a860301905061098f6000838b8b8b8080601f0160208091040260200160405190810160405280939291908181526020018383808284376000920191909152508892506119b5915050565b9a9950505050505050505050565b6109a5611cac565b816000816001600160401b038111156109c0576109c0613068565b6040519080825280602002602001820160405280156109f957816020015b6109e6612ef2565b8152602001906001900390816109de5790505b50905060005b82811015610a72576000828281518110610a1b57610a1b6135f3565b60200260200101519050600080610a56848a8a87818110610a3e57610a3e6135f3565b9050602002810190610a509190613609565b85611d03565b91509150610a678483836000611ede565b5050506001016109ff565b50604051600090600080516020613e88833981519152908290a160005b83811015610aea57610ade81888884818110610aad57610aad6135f3565b9050602002810190610abf9190613609565b858481518110610ad157610ad16135f3565b6020026020010151612074565b90910190600101610a8f565b50610af5848261219b565b505050610b026001600255565b505050565b33600090815260208190526040902080546001600160701b0316821115610b6c5760405162461bcd60e51b8152602060048201526019602482015278576974686472617720616d6f756e7420746f6f206c6172676560381b60448201526064016105d5565b8054610b829083906001600160701b031661362a565b81546001600160701b0319166001600160701b039190911617815560405133907fd1c19fbcd4551a5edfb66d43d2e337c04837afda3482b42bdf569a8fccdae5fb90610bd1908690869061363d565b60405180910390a26000836001600160a01b03168360405160006040518083038185875af1925050503d8060008114610c26576040519150601f19603f3d011682016040523d82523d6000602084013e610c2b565b606091505b5050905080610c715760405162461bcd60e51b81526020600482015260126024820152716661696c656420746f20776974686472617760701b60448201526064016105d5565b50505050565b6001600160a01b03821660009081526001602090815260408083206001600160c01b038516845290915290819020549082901b6001600160401b031916175b92915050565b610cc4611cac565b816000805b82811015610e295736868683818110610ce457610ce46135f3565b9050602002810190610cf69190613656565b9050366000610d05838061366c565b90925090506000610d1c60408501602086016133b8565b90506000196001600160a01b03821601610d725760405162461bcd60e51b815260206004820152601760248201527620a09c9b1034b73b30b634b21030b3b3b932b3b0ba37b960491b60448201526064016105d5565b6001600160a01b03811615610e06576001600160a01b03811663e3563a4f8484610d9f60408901896136b5565b6040518563ffffffff1660e01b8152600401610dbe9493929190613860565b60006040518083038186803b158015610dd657600080fd5b505afa925050508015610de7575060015b610e06578060405163086a9f7560e41b81526004016105d591906138dd565b610e10828761355e565b9550505050508080610e2190613571565b915050610cc9565b506000816001600160401b03811115610e4457610e44613068565b604051908082528060200260200182016040528015610e7d57816020015b610e6a612ef2565b815260200190600190039081610e625790505b50604051909150600080516020613e8883398151915290600090a16000805b84811015610f805736888883818110610eb757610eb76135f3565b9050602002810190610ec99190613656565b9050366000610ed8838061366c565b90925090506000610eef60408501602086016133b8565b90508160005b81811015610f67576000898981518110610f1157610f116135f3565b60200260200101519050600080610f348b898987818110610a3e57610a3e6135f3565b91509150610f4484838389611ede565b8a610f4e81613571565b9b50505050508080610f5f90613571565b915050610ef5565b5050505050508080610f7890613571565b915050610e9c565b50600080915060005b858110156110875736898983818110610fa457610fa46135f3565b9050602002810190610fb69190613656565b9050610fc860408201602083016133b8565b6001600160a01b0316600080516020613e6883398151915260405160405180910390a2366000610ff8838061366c565b90925090508060005b8181101561106f576110438885858481811061101f5761101f6135f3565b90506020028101906110319190613609565b8b8b81518110610ad157610ad16135f3565b61104d908861355e565b96508761105981613571565b985050808061106790613571565b915050611001565b5050505050808061107f90613571565b915050610f89565b50604051600090600080516020613e68833981519152908290a26110ab868261219b565b5050505050610b026001600255565b6001600160a01b03166000908152602081905260409020546001600160701b031690565b831580156110f457506001600160a01b0383163b155b1561113d5760405162461bcd60e51b815260206004820152601960248201527810504c8c081858d8dbdd5b9d081b9bdd0819195c1b1bde5959603a1b60448201526064016105d5565b601481106111b357600061115460148284866138f1565b61115d9161391b565b60601c9050803b6000036111b15760405162461bcd60e51b815260206004820152601b60248201527a10504ccc081c185e5b585cdd195c881b9bdd0819195c1b1bde5959602a1b60448201526064016105d5565b505b60405162461bcd60e51b815260206004820152600060248201526044016105d5565b604051632b870d1b60e11b81526000906001600160a01b037f0000000000000000000000000000000000000000000000000000000000000000169063570e1a3690611226908690869060040161394b565b6020604051808303816000875af1158015611245573d6000803e3d6000fd5b505050506040513d601f19601f82011682018060405250810190611269919061395f565b905080604051633653dc0360e11b81526004016105d591906138dd565b60006112918261228f565b6040805160208101929092523090820152466060820152608001604051602081830303815290604052805190602001209050919050565b3360009081526020819052604081206001810154909163ffffffff90911690036113215760405162461bcd60e51b815260206004820152600a6024820152691b9bdd081cdd185ad95960b21b60448201526064016105d5565b8054600160701b900460ff1661136d5760405162461bcd60e51b8152602060048201526011602482015270616c726561647920756e7374616b696e6760781b60448201526064016105d5565b60018101546000906113859063ffffffff164261397c565b60018301805465ffffffffffff60201b1916600160201b65ffffffffffff841690810291909117909155835460ff60701b1916845560405190815290915033907ffa9b3c14cc825c412c9ed81b3ba365a5b459439403f18829e572ed53a4180f0a9060200161056e565b3360009081526020819052604090208054600160781b90046001600160701b0316806114545760405162461bcd60e51b81526020600482015260146024820152734e6f207374616b6520746f20776974686472617760601b60448201526064016105d5565b6001820154600160201b900465ffffffffffff166114b45760405162461bcd60e51b815260206004820152601d60248201527f6d7573742063616c6c20756e6c6f636b5374616b65282920666972737400000060448201526064016105d5565b600182015442600160201b90910465ffffffffffff1611156115165760405162461bcd60e51b815260206004820152601b60248201527a5374616b65207769746864726177616c206973206e6f742064756560281b60448201526064016105d5565b6001820180546001600160501b03191690558154600160781b600160e81b031916825560405133907fb7c918e0e249f999e965cafeb6c664271b3f4317d296461500e71da39f0cbda39061156d908690859061363d565b60405180910390a26000836001600160a01b03168260405160006040518083038185875af1925050503d80600081146115c2576040519150601f19603f3d011682016040523d82523d6000602084013e6115c7565b606091505b5050905080610c715760405162461bcd60e51b81526020600482015260186024820152776661696c656420746f207769746864726177207374616b6560401b60448201526064016105d5565b61161b612ef2565b611624856122a8565b60008061163360008885611d03565b9150915060006116438383612382565b905061164e43600052565b600061165c60008a87612074565b905061166743600052565b600060606001600160a01b038a16156116dd57896001600160a01b031689896040516116949291906139a2565b6000604051808303816000865af19150503d80600081146116d1576040519150601f19603f3d011682016040523d82523d6000602084013e6116d6565b606091505b5090925090505b866080015183856020015186604001518585604051630116f59360e71b81526004016105d5969594939291906139b2565b611716612ef2565b61171f826122a8565b60008061172e60008585611d03565b915091506000611745846000015160a0015161243b565b8451519091506000906117579061243b565b9050611761612f7c565b36600061177160408a018a6136b5565b9092509050600060148210156117885760006117a3565b6117966014600084866138f1565b61179f9161391b565b60601c5b90506117ae8161243b565b935050505060006117bf8686612382565b9050600081600001519050600060016001600160a01b0316826001600160a01b031614905060006040518060c001604052808b6080015181526020018b6040015181526020018315158152602001856020015165ffffffffffff168152602001856040015165ffffffffffff16815260200161183c8c6060015190565b905290506001600160a01b0383161580159061186257506001600160a01b038316600114155b156118b45760006040518060400160405280856001600160a01b0316815260200161188c8661243b565b81525090508187878a84604051633ebb2d3960e21b81526004016105d5959493929190613a63565b8086868960405163e0cff05f60e01b81526004016105d59493929190613acf565b6001600160a01b038216600090815260208190526040812080549091906119069084906001600160701b031661355e565b90506001600160701b038111156119525760405162461bcd60e51b815260206004820152601060248201526f6465706f736974206f766572666c6f7760801b60448201526064016105d5565b81546001600160701b0319166001600160701b03919091161790555050565b6000806000845160208601878987f195945050505050565b60603d828111156119975750815b604051602082018101604052818152816000602083013e9392505050565b6000805a8551909150600090816119cb82612483565b60a08301519091506001600160a01b0381166119ea5782519350611b91565b809350600088511115611b9157868202955060028a6002811115611a1057611a10613b14565b14611a8257606083015160405163a9a2340960e01b81526001600160a01b0383169163a9a2340991611a4a908e908d908c90600401613b2a565b600060405180830381600088803b158015611a6457600080fd5b5087f1158015611a78573d6000803e3d6000fd5b5050505050611b91565b606083015160405163a9a2340960e01b81526001600160a01b0383169163a9a2340991611ab7908e908d908c90600401613b2a565b600060405180830381600088803b158015611ad157600080fd5b5087f193505050508015611ae3575060015b611b9157611aef613b71565b806308c379a003611b485750611b03613b8d565b80611b0e5750611b4a565b8b81604051602001611b209190613c16565b60408051601f1981840301815290829052631101335b60e11b82526105d592916004016135da565b505b8a604051631101335b60e11b81526004016105d59181526040602082018190526012908201527110504d4c081c1bdcdd13dc081c995d995c9d60721b606082015260800190565b5a85038701965081870295508589604001511015611bfa578a604051631101335b60e11b81526004016105d591815260406020808301829052908201527f414135312070726566756e642062656c6f772061637475616c476173436f7374606082015260800190565b6040890151869003611c0c85826118d5565b6000808c6002811115611c2157611c21613b14565b1490508460a001516001600160a01b031685600001516001600160a01b03168c602001517f49628fd1471006c1482da88028e9ce4dbb080b815c9b0344d39e5a8e6ec1419f8860200151858d8f604051611c94949392919093845291151560208401526040830152606082015260800190565b60405180910390a45050505050505095945050505050565b6002805403611cfd5760405162461bcd60e51b815260206004820152601f60248201527f5265656e7472616e637947756172643a207265656e7472616e742063616c6c0060448201526064016105d5565b60028055565b60008060005a8451909150611d1886826124b3565b611d2186611286565b6020860152604081015160608201516080830151171760e087013517610100870135176001600160781b03811115611d965760405162461bcd60e51b815260206004820152601860248201527741413934206761732076616c756573206f766572666c6f7760401b60448201526064016105d5565b600080611da2846125ac565b9050611db08a8a8a846125f9565b85516020870151919950919350611dc79190612816565b611e1a5789604051631101335b60e11b81526004016105d5918152604060208201819052601a90820152794141323520696e76616c6964206163636f756e74206e6f6e636560301b606082015260800190565b611e2343600052565b60a08401516060906001600160a01b031615611e4b57611e468b8b8b8587612863565b975090505b60005a87039050808b60a001351015611eb0578b604051631101335b60e11b81526004016105d5918152604060208201819052601e908201527f41413430206f76657220766572696669636174696f6e4761734c696d69740000606082015260800190565b60408a018390528160608b015260c08b01355a8803018a608001818152505050505050505050935093915050565b600080611eea85612a86565b91509150816001600160a01b0316836001600160a01b031614611f505785604051631101335b60e11b81526004016105d59181526040602082018190526014908201527320a0991a1039b4b3b730ba3ab9329032b93937b960611b606082015260800190565b8015611fa25785604051631101335b60e11b81526004016105d591815260406020820181905260179082015276414132322065787069726564206f72206e6f742064756560481b606082015260800190565b6000611fad85612a86565b925090506001600160a01b038116156120095786604051631101335b60e11b81526004016105d59181526040602082018190526014908201527320a0999a1039b4b3b730ba3ab9329032b93937b960611b606082015260800190565b811561206b5786604051631101335b60e11b81526004016105d59181526040602082018190526021908201527f41413332207061796d61737465722065787069726564206f72206e6f742064756060820152606560f81b608082015260a00190565b50505050505050565b6000805a90506000612087846060015190565b905030631d73275661209c60608801886136b5565b87856040518563ffffffff1660e01b81526004016120bd9493929190613c54565b6020604051808303816000875af19250505080156120f8575060408051601f3d908101601f191682019092526120f591810190613d07565b60015b61218f57600060206000803e50600051632152215360e01b810161215a5786604051631101335b60e11b81526004016105d5918152604060208201819052600f908201526e41413935206f7574206f662067617360881b606082015260800190565b600085608001515a61216c908661362a565b612176919061355e565b90506121868860028886856119b5565b94505050612192565b92505b50509392505050565b6001600160a01b0382166121ec5760405162461bcd60e51b81526020600482015260186024820152774141393020696e76616c69642062656e656669636961727960401b60448201526064016105d5565b6000826001600160a01b03168260405160006040518083038185875af1925050503d8060008114612239576040519150601f19603f3d011682016040523d82523d6000602084013e61223e565b606091505b5050905080610b025760405162461bcd60e51b815260206004820152601f60248201527f41413931206661696c65642073656e6420746f2062656e65666963696172790060448201526064016105d5565b600061229a82612ad9565b805190602001209050919050565b3063957122ab6122bb60408401846136b5565b6122c860208601866133b8565b6122d66101208701876136b5565b6040518663ffffffff1660e01b81526004016122f6959493929190613d20565b60006040518083038186803b15801561230e57600080fd5b505afa92505050801561231f575060015b61237f5761232b613b71565b806308c379a003612373575061233f613b8d565b8061234a5750612375565b80511561236f57600081604051631101335b60e11b81526004016105d59291906135da565b5050565b505b3d6000803e3d6000fd5b50565b61238a612f96565b600061239584612bac565b905060006123a284612bac565b82519091506001600160a01b0381166123b9575080515b602080840151604080860151928501519085015191929165ffffffffffff80831690851610156123e7578193505b8065ffffffffffff168365ffffffffffff161115612403578092505b5050604080516060810182526001600160a01b03909416845265ffffffffffff92831660208501529116908201529250505092915050565b612443612f7c565b6001600160a01b0390911660009081526020818152604090912080546001600160701b03600160781b9091041683526001015463ffffffff169082015290565b60c081015160e08201516000919080820361249f575092915050565b6124ab82488301612c08565b949350505050565b6124c060208301836133b8565b6001600160a01b0316815260208083013590820152608080830135604083015260a0830135606083015260c0808401359183019190915260e080840135918301919091526101008301359082015236600061251f6101208501856136b5565b9092509050801561259f57601481101561257b5760405162461bcd60e51b815260206004820152601d60248201527f4141393320696e76616c6964207061796d6173746572416e644461746100000060448201526064016105d5565b6125896014600083856138f1565b6125929161391b565b60601c60a0840152610c71565b600060a084015250505050565b60a081015160009081906001600160a01b03166125ca5760016125cd565b60035b60ff16905060008360800151828560600151028560400151010190508360c00151810292505050919050565b60008060005a855180519192509061261e898861261960408c018c6136b5565b612c20565b60a082015161262c43600052565b60006001600160a01b03821661265f576000612647846110ba565b90508881116126585780890361265b565b60005b9150505b606084015160208a0151604051633a871cdd60e01b81526001600160a01b03861692633a871cdd929091612699918f918790600401613d56565b60206040518083038160008887f1935050505080156126d5575060408051601f3d908101601f191682019092526126d291810190613d07565b60015b61275f576126e1613b71565b806308c379a00361271257506126f5613b8d565b806127005750612714565b8b81604051602001611b209190613d7b565b505b8a604051631101335b60e11b81526004016105d5918152604060208201819052601690820152754141323320726576657274656420286f72204f4f472960501b606082015260800190565b95506001600160a01b038216612803576001600160a01b038316600090815260208190526040902080546001600160701b0316808a11156127e6578c604051631101335b60e11b81526004016105d59181526040602082018190526017908201527610504c8c48191a591b89dd081c185e481c1c99599d5b99604a1b606082015260800190565b81546001600160701b031916908a90036001600160701b03161790555b5a85039650505050505094509492505050565b6001600160a01b038216600090815260016020908152604080832084821c80855292528220805484916001600160401b03831691908561285583613571565b909155501495945050505050565b825160608181015190916000918481116128bf5760405162461bcd60e51b815260206004820152601f60248201527f4141343120746f6f206c6974746c6520766572696669636174696f6e4761730060448201526064016105d5565b60a08201516001600160a01b038116600090815260208190526040902080548784039291906001600160701b031689811015612947578c604051631101335b60e11b81526004016105d5918152604060208201819052601e908201527f41413331207061796d6173746572206465706f73697420746f6f206c6f770000606082015260800190565b8981038260000160006101000a8154816001600160701b0302191690836001600160701b03160217905550826001600160a01b031663f465c77e858e8e602001518e6040518563ffffffff1660e01b81526004016129a793929190613d56565b60006040518083038160008887f1935050505080156129e857506040513d6000823e601f3d908101601f191682016040526129e59190810190613db2565b60015b612a72576129f4613b71565b806308c379a003612a255750612a08613b8d565b80612a135750612a27565b8d81604051602001611b209190613e3d565b505b8c604051631101335b60e11b81526004016105d5918152604060208201819052601690820152754141333320726576657274656420286f72204f4f472960501b606082015260800190565b909e909d509b505050505050505050505050565b60008082600003612a9c57506000928392509050565b6000612aa784612bac565b9050806040015165ffffffffffff16421180612ace5750806020015165ffffffffffff1642105b905194909350915050565b6060813560208301356000612af9612af460408701876136b5565b612edf565b90506000612b0d612af460608801886136b5565b9050608086013560a087013560c088013560e08901356101008a01356000612b3c612af46101208e018e6136b5565b604080516001600160a01b039c909c1660208d01528b81019a909a5260608b019890985250608089019590955260a088019390935260c087019190915260e08601526101008501526101208401526101408084019190915281518084039091018152610160909201905292915050565b612bb4612f96565b8160a081901c65ffffffffffff8116600003612bd3575065ffffffffffff5b604080516060810182526001600160a01b03909316835260d09490941c602083015265ffffffffffff16928101929092525090565b6000818310612c175781612c19565b825b9392505050565b8015610c71578251516001600160a01b0381163b15612c8b5784604051631101335b60e11b81526004016105d5918152604060208201819052601f908201527f414131302073656e64657220616c726561647920636f6e737472756374656400606082015260800190565b835160600151604051632b870d1b60e11b81526000916001600160a01b037f0000000000000000000000000000000000000000000000000000000000000000169163570e1a369190612ce3908890889060040161394b565b60206040518083038160008887f1158015612d02573d6000803e3d6000fd5b50505050506040513d601f19601f82011682018060405250810190612d27919061395f565b90506001600160a01b038116612d875785604051631101335b60e11b81526004016105d5918152604060208201819052601b908201527a4141313320696e6974436f6465206661696c6564206f72204f4f4760281b606082015260800190565b816001600160a01b0316816001600160a01b031614612df15785604051631101335b60e11b81526004016105d591815260406020808301829052908201527f4141313420696e6974436f6465206d7573742072657475726e2073656e646572606082015260800190565b806001600160a01b03163b600003612e545785604051631101335b60e11b81526004016105d591815260406020808301829052908201527f4141313520696e6974436f6465206d757374206372656174652073656e646572606082015260800190565b6000612e6360148286886138f1565b612e6c9161391b565b60601c9050826001600160a01b031686602001517fd51a9c61267aa6196961883ecf5ff2da6619c37dac0fa92122513fb32c032d2d83896000015160a00151604051612ece9291906001600160a01b0392831681529116602082015260400190565b60405180910390a350505050505050565b6000604051828085833790209392505050565b6040518060a00160405280612f5760405180610100016040528060006001600160a01b031681526020016000815260200160008152602001600081526020016000815260200160006001600160a01b0316815260200160008152602001600081525090565b8152602001600080191681526020016000815260200160008152602001600081525090565b604051806040016040528060008152602001600081525090565b604080516060810182526000808252602082018190529181019190915290565b600060208284031215612fc857600080fd5b813563ffffffff81168114612c1957600080fd5b80356001600160c01b0381168114612ff357600080fd5b919050565b60006020828403121561300a57600080fd5b612c1982612fdc565b6001600160a01b038116811461237f57600080fd5b8035612ff381613013565b6000806040838503121561304657600080fd5b823561305181613013565b915061305f60208401612fdc565b90509250929050565b634e487b7160e01b600052604160045260246000fd5b60a081016001600160401b038111828210171561309d5761309d613068565b60405250565b61010081016001600160401b038111828210171561309d5761309d613068565b601f8201601f191681016001600160401b03811182821017156130e8576130e8613068565b6040525050565b60006001600160401b0382111561310857613108613068565b50601f01601f191660200190565b600081830361018081121561312a57600080fd5b6040516131368161307e565b8092506101008083121561314957600080fd5b6040519250613157836130a3565b61316085613028565b83526020850135602084015260408501356040840152606085013560608401526080850135608084015261319660a08601613028565b60a084015260c085013560c084015260e085013560e084015282825280850135602083015250610120840135604082015261014084013560608201526101608401356080820152505092915050565b60008083601f8401126131f757600080fd5b5081356001600160401b0381111561320e57600080fd5b60208301915083602082850101111561322657600080fd5b9250929050565b6000806000806101c0858703121561324457600080fd5b84356001600160401b038082111561325b57600080fd5b818701915087601f83011261326f57600080fd5b813561327a816130ef565b60405161328782826130c3565b8281528a602084870101111561329c57600080fd5b826020860160208301376000602084830101528098505050506132c28860208901613116565b94506101a08701359150808211156132d957600080fd5b506132e6878288016131e5565b95989497509550505050565b60008083601f84011261330457600080fd5b5081356001600160401b0381111561331b57600080fd5b6020830191508360208260051b850101111561322657600080fd5b60008060006040848603121561334b57600080fd5b83356001600160401b0381111561336157600080fd5b61336d868287016132f2565b909450925050602084013561338181613013565b809150509250925092565b6000806040838503121561339f57600080fd5b82356133aa81613013565b946020939093013593505050565b6000602082840312156133ca57600080fd5b8135612c1981613013565b6000806000806000606086880312156133ed57600080fd5b85356001600160401b038082111561340457600080fd5b61341089838a016131e5565b90975095506020880135915061342582613013565b9093506040870135908082111561343b57600080fd5b50613448888289016131e5565b969995985093965092949392505050565b6000806020838503121561346c57600080fd5b82356001600160401b0381111561348257600080fd5b61348e858286016131e5565b90969095509350505050565b600061016082840312156134ad57600080fd5b50919050565b6000602082840312156134c557600080fd5b81356001600160401b038111156134db57600080fd5b6124ab8482850161349a565b600080600080606085870312156134fd57600080fd5b84356001600160401b038082111561351457600080fd5b6135208883890161349a565b95506020870135915061353282613013565b909350604086013590808211156132d957600080fd5b634e487b7160e01b600052601160045260246000fd5b80820180821115610cb657610cb6613548565b60006001820161358357613583613548565b5060010190565b60005b838110156135a557818101518382015260200161358d565b50506000910152565b600081518084526135c681602086016020860161358a565b601f01601f19169290920160200192915050565b8281526040602082015260006124ab60408301846135ae565b634e487b7160e01b600052603260045260246000fd5b6000823561015e1983360301811261362057600080fd5b9190910192915050565b81810381811115610cb657610cb6613548565b6001600160a01b03929092168252602082015260400190565b60008235605e1983360301811261362057600080fd5b6000808335601e1984360301811261368357600080fd5b8301803591506001600160401b0382111561369d57600080fd5b6020019150600581901b360382131561322657600080fd5b6000808335601e198436030181126136cc57600080fd5b8301803591506001600160401b038211156136e657600080fd5b60200191503681900382131561322657600080fd5b6000808335601e1984360301811261371257600080fd5b83016020810192503590506001600160401b0381111561373157600080fd5b80360382131561322657600080fd5b81835281816020850137506000828201602090810191909152601f909101601f19169091010190565b60006101606137888461377b85613028565b6001600160a01b03169052565b6020830135602085015261379f60408401846136fb565b8260408701526137b28387018284613740565b925050506137c360608401846136fb565b85830360608701526137d6838284613740565b925050506080830135608085015260a083013560a085015260c083013560c085015260e083013560e085015261010080840135818601525061012061381d818501856136fb565b8684038388015261382f848284613740565b9350505050610140613843818501856136fb565b86840383880152613855848284613740565b979650505050505050565b6040808252810184905260006060600586901b830181019083018783805b898110156138c657868503605f190184528235368c900361015e190181126138a4578283fd5b6138b0868d8301613769565b955050602093840193929092019160010161387e565b505050508281036020840152613855818587613740565b6001600160a01b0391909116815260200190565b6000808585111561390157600080fd5b8386111561390e57600080fd5b5050820193919092039150565b6001600160601b031981358181169160148510156139435780818660140360031b1b83161692505b505092915050565b6020815260006124ab602083018486613740565b60006020828403121561397157600080fd5b8151612c1981613013565b65ffffffffffff81811683821601908082111561399b5761399b613548565b5092915050565b8183823760009101908152919050565b868152856020820152600065ffffffffffff8087166040840152808616606084015250831515608083015260c060a08301526139f160c08301846135ae565b98975050505050505050565b80518252602081015160208301526040810151151560408301526000606082015165ffffffffffff8082166060860152806080850151166080860152505060a082015160c060a08501526124ab60c08501826135ae565b80518252602090810151910152565b6000610140808352613a77818401896139fd565b915050613a876020830187613a54565b613a946060830186613a54565b613aa160a0830185613a54565b82516001600160a01b031660e08301526020830151613ac4610100840182613a54565b509695505050505050565b60e081526000613ae260e08301876139fd565b9050613af16020830186613a54565b613afe6060830185613a54565b613b0b60a0830184613a54565b95945050505050565b634e487b7160e01b600052602160045260246000fd5b600060038510613b4a57634e487b7160e01b600052602160045260246000fd5b84825260606020830152613b6160608301856135ae565b9050826040830152949350505050565b600060033d1115613b8a5760046000803e5060005160e01c5b90565b600060443d1015613b9b5790565b6040516003193d81016004833e81513d6001600160401b038083116024840183101715613bca57505050505090565b8285019150815181811115613be25750505050505090565b843d8701016020828501011115613bfc5750505050505090565b613c0b602082860101876130c3565b509095945050505050565b75020a09a98103837b9ba27b8103932bb32b93a32b21d160551b815260008251613c4781601685016020870161358a565b9190910160160192915050565b60006101c0808352613c698184018789613740565b9050845160018060a01b03808251166020860152602082015160408601526040820151606086015260608201516080860152608082015160a08601528060a08301511660c08601525060c081015160e085015260e08101516101008501525060208501516101208401526040850151610140840152606085015161016084015260808501516101808401528281036101a084015261385581856135ae565b600060208284031215613d1957600080fd5b5051919050565b606081526000613d34606083018789613740565b6001600160a01b038616602084015282810360408401526139f1818587613740565b606081526000613d696060830186613769565b60208301949094525060400152919050565b6e020a09919903932bb32b93a32b21d1608d1b815260008251613da581600f85016020870161358a565b91909101600f0192915050565b60008060408385031215613dc557600080fd5b82516001600160401b03811115613ddb57600080fd5b8301601f81018513613dec57600080fd5b8051613df7816130ef565b604051613e0482826130c3565b828152876020848601011115613e1957600080fd5b613e2a83602083016020870161358a565b6020969096015195979596505050505050565b6e020a09999903932bb32b93a32b21d1608d1b815260008251613da581600f85016020870161358a56fe575ff3acadd5ab348fe1855e217e0f3678f8d767d7494c9f9fefbee2e17cca4dbb47ee3e183a558b1a2ff0874b079f3fc5478b7454eacf2bfc5af2ff5878f972a2646970667358221220f5ad33539d9a637f8a3651cb10c4d9cb6fadc8aa0918588a5b00ab24e4b7393664736f6c63430008120033608060405234801561001057600080fd5b506101ed806100206000396000f3fe608060405234801561001057600080fd5b506004361061002b5760003560e01c8063570e1a3614610030575b600080fd5b61004361003e3660046100ec565b61005f565b6040516001600160a01b03909116815260200160405180910390f35b60008061006f601482858761015d565b61007891610187565b60601c9050600061008c846014818861015d565b8080601f016020809104026020016040519081016040528093929190818152602001838380828437600092018290525084519495509360209350849250905082850182875af190506000519350806100e357600093505b50505092915050565b600080602083850312156100ff57600080fd5b82356001600160401b038082111561011657600080fd5b818501915085601f83011261012a57600080fd5b81358181111561013957600080fd5b86602082850101111561014b57600080fd5b60209290920196919550909350505050565b6000808585111561016d57600080fd5b8386111561017a57600080fd5b5050820193919092039150565b6001600160601b031981358181169160148510156101af5780818660140360031b1b83161692505b50509291505056fea26469706673582212207574c598c78e6837423ac0d1286c5f31932177075be4d0fa083c471eb2e58a4764736f6c63430008120033",
  "linkReferences": {},
  "deployedLinkReferences": {}
}