{
  "_format": "hh-sol-artifact-1",
  "contractName": "VerifyingPaymaster",
  "sourceName": "contracts/VerifyingPaymaster.sol",
  "abi": [
    {
      "inputs": [
        {
          "internalType": "contract IEntryPoint",
          "name": "_entryPoint",
          "type": "address"
        },
        {
          "internalType": "address",
          "name": "_verifyingSigner",
          "type": "address"
        }
      ],
      "stateMutability": "nonpayable",
      "type": "constructor"
    },
    {
      "anonymous": false,
      "inputs": [
        {
          "indexed": true,
          "internalType": "address",
          "name": "previousOwner",
          "type": "address"
        },
        {
          "indexed": true,
          "internalType": "address",
          "name": "newOwner",
          "type": "address"
        }
      ],
      "name": "OwnershipTransferred",
      "type": "event"
    },
    {
      "inputs": [
        {
          "internalType": "uint32",
          "name": "unstakeDelaySec",
          "type": "uint32"
        }
      ],
      "name": "addStake",
      "outputs": [],
      "stateMutability": "payable",
      "type": "function"
    },
    {
      "inputs": [],
      "name": "deposit",
      "outputs": [],
      "stateMutability": "payable",
      "type": "function"
    },
    {
      "inputs": [],
      "name": "entryPoint",
      "outputs": [
        {
          "internalType": "contract IEntryPoint",
          "name": "",
          "type": "address"
        }
      ],
      "stateMutability": "view",
      "type": "function"
    },
    {
      "inputs": [],
      "name": "getDeposit",
      "outputs": [
        {
          "internalType": "uint256",
          "name": "",
          "type": "uint256"
        }
      ],
      "stateMutability": "view",
      "type": "function"
    },
    {
      "inputs": [
        {
          "components": [
            {
              "internalType": "address",
              "name": "sender",
              "type": "address"
            },
            {
              "internalType": "uint256",
              "name": "nonce",
              "type": "uint256"
            },
            {
              "internalType": "bytes",
              "name": "initCode",
              "type": "bytes"
            },
            {
              "internalType": "bytes",
              "name": "callData",
              "type": "bytes"
            },
            {
              "internalType": "uint256",
              "name": "callGasLimit",
              "type": "uint256"
            },
            {
              "internalType": "uint256",
              "name": "verificationGasLimit",
              "type": "uint256"
            },
            {
              "internalType": "uint256",
              "name": "preVerificationGas",
              "type": "uint256"
            },
            {
              "internalType": "uint256",
              "name": "maxFeePerGas",
              "type": "uint256"
            },
            {
              "internalType": "uint256",
              "name": "maxPriorityFeePerGas",
              "type": "uint256"
            },
            {
              "internalType": "bytes",
              "name": "paymasterAndData",
              "type": "bytes"
            },
            {
              "internalType": "bytes",
              "name": "signature",
              "type": "bytes"
            }
          ],
          "internalType": "struct UserOperation",
          "name": "userOp",
          "type": "tuple"
        },
        {
          "internalType": "uint48",
          "name": "validUntil",
          "type": "uint48"
        },
        {
          "internalType": "uint48",
          "name": "validAfter",
          "type": "uint48"
        }
      ],
      "name": "getHash",
      "outputs": [
        {
          "internalType": "bytes32",
          "name": "",
          "type": "bytes32"
        }
      ],
      "stateMutability": "view",
      "type": "function"
    },
    {
      "inputs": [],
      "name": "owner",
      "outputs": [
        {
          "internalType": "address",
          "name": "",
          "type": "address"
        }
      ],
      "stateMutability": "view",
      "type": "function"
    },
    {
      "inputs": [
        {
          "internalType": "bytes",
          "name": "paymasterAndData",
          "type": "bytes"
        }
      ],
      "name": "parsePaymasterAndData",
      "outputs": [
        {
          "internalType": "uint48",
          "name": "validUntil",
          "type": "uint48"
        },
        {
          "internalType": "uint48",
          "name": "validAfter",
          "type": "uint48"
        },
        {
          "internalType": "bytes",
          "name": "signature",
          "type": "bytes"
        }
      ],
      "stateMutability": "pure",
      "type": "function"
    },
    {
      "inputs": [
        {
          "internalType": "enum IPaymaster.PostOpMode",
          "name": "mode",
          "type": "uint8"
        },
        {
          "internalType": "bytes",
          "name": "context",
          "type": "bytes"
        },
        {
          "internalType": "uint256",
          "name": "actualGasCost",
          "type": "uint256"
        }
      ],
      "name": "postOp",
      "outputs": [],
      "stateMutability": "nonpayable",
      "type": "function"
    },
    {
      "inputs": [],
      "name": "renounceOwnership",
      "outputs": [],
      "stateMutability": "nonpayable",
      "type": "function"
    },
    {
      "inputs": [
        {
          "internalType": "address",
          "name": "",
          "type": "address"
        }
      ],
      "name": "senderNonce",
      "outputs": [
        {
          "internalType": "uint256",
          "name": "",
          "type": "uint256"
        }
      ],
      "stateMutability": "view",
      "type": "function"
    },
    {
      "inputs": [
        {
          "internalType": "address",
          "name": "newOwner",
          "type": "address"
        }
      ],
      "name": "transferOwnership",
      "outputs": [],
      "stateMutability": "nonpayable",
      "type": "function"
    },
    {
      "inputs": [],
      "name": "unlockStake",
      "outputs": [],
      "stateMutability": "nonpayable",
      "type": "function"
    },
    {
      "inputs": [
        {
          "components": [
            {
              "internalType": "address",
              "name": "sender",
              "type": "address"
            },
            {
              "internalType": "uint256",
              "name": "nonce",
              "type": "uint256"
            },
            {
              "internalType": "bytes",
              "name": "initCode",
              "type": "bytes"
            },
            {
              "internalType": "bytes",
              "name": "callData",
              "type": "bytes"
            },
            {
              "internalType": "uint256",
              "name": "callGasLimit",
              "type": "uint256"
            },
            {
              "internalType": "uint256",
              "name": "verificationGasLimit",
              "type": "uint256"
            },
            {
              "internalType": "uint256",
              "name": "preVerificationGas",
              "type": "uint256"
            },
            {
              "internalType": "uint256",
              "name": "maxFeePerGas",
              "type": "uint256"
            },
            {
              "internalType": "uint256",
              "name": "maxPriorityFeePerGas",
              "type": "uint256"
            },
            {
              "internalType": "bytes",
              "name": "paymasterAndData",
              "type": "bytes"
            },
            {
              "internalType": "bytes",
              "name": "signature",
              "type": "bytes"
            }
          ],
          "internalType": "struct UserOperation",
          "name": "userOp",
          "type": "tuple"
        },
        {
          "internalType": "bytes32",
          "name": "userOpHash",
          "type": "bytes32"
        },
        {
          "internalType": "uint256",
          "name": "maxCost",
          "type": "uint256"
        }
      ],
      "name": "validatePaymasterUserOp",
      "outputs": [
        {
          "internalType": "bytes",
          "name": "context",
          "type": "bytes"
        },
        {
          "internalType": "uint256",
          "name": "validationData",
          "type": "uint256"
        }
      ],
      "stateMutability": "nonpayable",
      "type": "function"
    },
    {
      "inputs": [],
      "name": "verifyingSigner",
      "outputs": [
        {
          "internalType": "address",
          "name": "",
          "type": "address"
        }
      ],
      "stateMutability": "view",
      "type": "function"
    },
    {
      "inputs": [
        {
          "internalType": "address payable",
          "name": "withdrawAddress",
          "type": "address"
        }
      ],
      "name": "withdrawStake",
      "outputs": [],
      "stateMutability": "nonpayable",
      "type": "function"
    },
    {
      "inputs": [
        {
          "internalType": "address payable",
          "name": "withdrawAddress",
          "type": "address"
        },
        {
          "internalType": "uint256",
          "name": "amount",
          "type": "uint256"
        }
      ],
      "name": "withdrawTo",
      "outputs": [],
      "stateMutability": "nonpayable",
      "type": "function"
    }
  ],
  "bytecode": "0x60c06040523480156200001157600080fd5b5060405162001476380380620014768339810160408190526200003491620001ad565b81620000403362000066565b6001600160a01b03908116608052811660a0526200005e33620000b6565b5050620001ec565b600080546001600160a01b038381166001600160a01b0319831681178455604051919092169283917f8be0079c531659141344cd1fd0a4f28419497f9722a3daafe3b4186f6b6457e09190a35050565b620000c062000139565b6001600160a01b0381166200012b5760405162461bcd60e51b815260206004820152602660248201527f4f776e61626c653a206e6577206f776e657220697320746865207a65726f206160448201526564647265737360d01b60648201526084015b60405180910390fd5b620001368162000066565b50565b6000546001600160a01b03163314620001955760405162461bcd60e51b815260206004820181905260248201527f4f776e61626c653a2063616c6c6572206973206e6f7420746865206f776e6572604482015260640162000122565b565b6001600160a01b03811681146200013657600080fd5b60008060408385031215620001c157600080fd5b8251620001ce8162000197565b6020840151909250620001e18162000197565b809150509250929050565b60805160a05161122c6200024a6000396000818161010f0152610a7801526000818161022e01528181610312015281816103a9015281816104ce0152818161055a015281816105de01528181610670015261085b015261122c6000f3fe6080604052600436106100c35760003560e01c80630396cb60146100c8578063205c2878146100dd57806323d9ac9b146100fd578063715018a6146101475780638da5cb5b1461015c57806394d4ad601461017157806394e1fc19146101a15780639c90b443146101cf578063a9a23409146101fc578063b0d691fe1461021c578063bb9fe6bf14610250578063c23a5cea14610265578063c399ec8814610285578063d0e30db01461029a578063f2fde38b146102a2578063f465c77e146102c2575b600080fd5b6100db6100d6366004610d9b565b6102f0565b005b3480156100e957600080fd5b506100db6100f8366004610ddd565b61037b565b34801561010957600080fd5b506101317f000000000000000000000000000000000000000000000000000000000000000081565b60405161013e9190610e09565b60405180910390f35b34801561015357600080fd5b506100db6103ed565b34801561016857600080fd5b50610131610401565b34801561017d57600080fd5b5061019161018c366004610e5e565b610410565b60405161013e9493929190610e9f565b3480156101ad57600080fd5b506101c16101bc366004610f1f565b61044d565b60405190815260200161013e565b3480156101db57600080fd5b506101c16101ea366004610f7c565b60016020526000908152604090205481565b34801561020857600080fd5b506100db610217366004610f99565b6104aa565b34801561022857600080fd5b506101317f000000000000000000000000000000000000000000000000000000000000000081565b34801561025c57600080fd5b506100db6104c4565b34801561027157600080fd5b506100db610280366004610f7c565b61053b565b34801561029157600080fd5b506101c16105c4565b6100db610659565b3480156102ae57600080fd5b506100db6102bd366004610f7c565b6106c0565b3480156102ce57600080fd5b506102e26102dd366004610ff8565b61073e565b60405161013e92919061108b565b6102f8610762565b604051621cb65b60e51b815263ffffffff821660048201527f00000000000000000000000000000000000000000000000000000000000000006001600160a01b031690630396cb609034906024016000604051808303818588803b15801561035f57600080fd5b505af1158015610373573d6000803e3d6000fd5b505050505050565b610383610762565b60405163040b850f60e31b81526001600160a01b038381166004830152602482018390527f0000000000000000000000000000000000000000000000000000000000000000169063205c287890604401600060405180830381600087803b15801561035f57600080fd5b6103f5610762565b6103ff60006107c1565b565b6000546001600160a01b031690565b60008036816104236054601487896110ad565b81019061043091906110d7565b909450925061044285605481896110ad565b949793965094505050565b600061045884610811565b6001600160a01b0385351660009081526001602090815260409182902054915161048b939246923092899189910161110a565b6040516020818303038152906040528051906020012090509392505050565b6104b2610850565b6104be848484846108c0565b50505050565b6104cc610762565b7f00000000000000000000000000000000000000000000000000000000000000006001600160a01b031663bb9fe6bf6040518163ffffffff1660e01b8152600401600060405180830381600087803b15801561052757600080fd5b505af11580156104be573d6000803e3d6000fd5b610543610762565b60405163611d2e7560e11b81526001600160a01b037f0000000000000000000000000000000000000000000000000000000000000000169063c23a5cea9061058f908490600401610e09565b600060405180830381600087803b1580156105a957600080fd5b505af11580156105bd573d6000803e3d6000fd5b5050505050565b6040516370a0823160e01b81526000906001600160a01b037f000000000000000000000000000000000000000000000000000000000000000016906370a0823190610613903090600401610e09565b602060405180830381865afa158015610630573d6000803e3d6000fd5b505050506040513d601f19601f82011682018060405250810190610654919061115a565b905090565b60405163b760faf960e01b81526001600160a01b037f0000000000000000000000000000000000000000000000000000000000000000169063b760faf99034906106a7903090600401610e09565b6000604051808303818588803b1580156105a957600080fd5b6106c8610762565b6001600160a01b0381166107325760405162461bcd60e51b815260206004820152602660248201527f4f776e61626c653a206e6577206f776e657220697320746865207a65726f206160448201526564647265737360d01b60648201526084015b60405180910390fd5b61073b816107c1565b50565b6060600061074a610850565b6107558585856108f8565b915091505b935093915050565b3361076b610401565b6001600160a01b0316146103ff5760405162461bcd60e51b815260206004820181905260248201527f4f776e61626c653a2063616c6c6572206973206e6f7420746865206f776e65726044820152606401610729565b600080546001600160a01b038381166001600160a01b0319831681178455604051919092169283917f8be0079c531659141344cd1fd0a4f28419497f9722a3daafe3b4186f6b6457e09190a35050565b6060366000610824610120850185611173565b915091508360208184030360405194506020810185016040528085528082602087013750505050919050565b336001600160a01b037f000000000000000000000000000000000000000000000000000000000000000016146103ff5760405162461bcd60e51b815260206004820152601560248201527414d95b99195c881b9bdd08115b9d1c9e541bda5b9d605a1b6044820152606401610729565b60405162461bcd60e51b815260206004820152600d60248201526c6d757374206f7665727269646560981b6044820152606401610729565b606060008080368161091161018c6101208b018b611173565b92965090945092509050604081148061092a5750604181145b61099e576040805162461bcd60e51b81526020600482015260248101919091527f566572696679696e675061796d61737465723a20696e76616c6964207369676e60448201527f6174757265206c656e67746820696e207061796d6173746572416e64446174616064820152608401610729565b6000610a006109ae8b878761044d565b6040517b0ca2ba3432b932bab69029b4b3b732b21026b2b9b9b0b3b29d05199960211b6020820152603c8101829052600090605c01604051602081830303815290604052805190602001209050919050565b6001600160a01b038b35166000908152600160205260408120805492935090610a28836111b9565b9190505550610a6d8184848080601f016020809104026020016040519081016040528093929190818152602001838380828437600092019190915250610afb92505050565b6001600160a01b03167f00000000000000000000000000000000000000000000000000000000000000006001600160a01b031614610ad057610ab160018686610b1f565b604051806020016040528060008152509096509650505050505061075a565b610adc60008686610b1f565b6040805160208101909152600081529b909a5098505050505050505050565b6000806000610b0a8585610b57565b91509150610b1781610b9c565b509392505050565b600060d08265ffffffffffff16901b60a08465ffffffffffff16901b85610b47576000610b4a565b60015b60ff161717949350505050565b6000808251604103610b8d5760208301516040840151606085015160001a610b8187828585610ce1565b94509450505050610b95565b506000905060025b9250929050565b6000816004811115610bb057610bb06111e0565b03610bb85750565b6001816004811115610bcc57610bcc6111e0565b03610c145760405162461bcd60e51b815260206004820152601860248201527745434453413a20696e76616c6964207369676e617475726560401b6044820152606401610729565b6002816004811115610c2857610c286111e0565b03610c755760405162461bcd60e51b815260206004820152601f60248201527f45434453413a20696e76616c6964207369676e6174757265206c656e677468006044820152606401610729565b6003816004811115610c8957610c896111e0565b0361073b5760405162461bcd60e51b815260206004820152602260248201527f45434453413a20696e76616c6964207369676e6174757265202773272076616c604482015261756560f01b6064820152608401610729565b6000806fa2a8918ca85bafe22016d0b997e4df60600160ff1b03831115610d0e5750600090506003610d92565b6040805160008082526020820180845289905260ff881692820192909252606081018690526080810185905260019060a0016020604051602081039080840390855afa158015610d62573d6000803e3d6000fd5b5050604051601f1901519150506001600160a01b038116610d8b57600060019250925050610d92565b9150600090505b94509492505050565b600060208284031215610dad57600080fd5b813563ffffffff81168114610dc157600080fd5b9392505050565b6001600160a01b038116811461073b57600080fd5b60008060408385031215610df057600080fd5b8235610dfb81610dc8565b946020939093013593505050565b6001600160a01b0391909116815260200190565b60008083601f840112610e2f57600080fd5b5081356001600160401b03811115610e4657600080fd5b602083019150836020828501011115610b9557600080fd5b60008060208385031215610e7157600080fd5b82356001600160401b03811115610e8757600080fd5b610e9385828601610e1d565b90969095509350505050565b600065ffffffffffff808716835280861660208401525060606040830152826060830152828460808401376000608084840101526080601f19601f850116830101905095945050505050565b60006101608284031215610efe57600080fd5b50919050565b803565ffffffffffff81168114610f1a57600080fd5b919050565b600080600060608486031215610f3457600080fd5b83356001600160401b03811115610f4a57600080fd5b610f5686828701610eeb565b935050610f6560208501610f04565b9150610f7360408501610f04565b90509250925092565b600060208284031215610f8e57600080fd5b8135610dc181610dc8565b60008060008060608587031215610faf57600080fd5b843560038110610fbe57600080fd5b935060208501356001600160401b03811115610fd957600080fd5b610fe587828801610e1d565b9598909750949560400135949350505050565b60008060006060848603121561100d57600080fd5b83356001600160401b0381111561102357600080fd5b61102f86828701610eeb565b9660208601359650604090950135949350505050565b6000815180845260005b8181101561106b5760208185018101518683018201520161104f565b506000602082860101526020601f19601f83011685010191505092915050565b60408152600061109e6040830185611045565b90508260208301529392505050565b600080858511156110bd57600080fd5b838611156110ca57600080fd5b5050820193919092039150565b600080604083850312156110ea57600080fd5b6110f383610f04565b915061110160208401610f04565b90509250929050565b60c08152600061111d60c0830189611045565b6020830197909752506001600160a01b03949094166040850152606084019290925265ffffffffffff90811660808401521660a090910152919050565b60006020828403121561116c57600080fd5b5051919050565b6000808335601e1984360301811261118a57600080fd5b8301803591506001600160401b038211156111a457600080fd5b602001915036819003821315610b9557600080fd5b6000600182016111d957634e487b7160e01b600052601160045260246000fd5b5060010190565b634e487b7160e01b600052602160045260246000fdfea2646970667358221220d1fc8edd40356c38a5bbf7c6f0abb32ffabbbcb6ec52800d65f4f8bdf6a98cf864736f6c63430008120033",
  "linkReferences": {},
  "deployedLinkReferences": {}
}